:100000000C945F000C9489000C9489000C94890076
:100010000C9489000C9489000C9489000C9489003C
:100020000C9489000C9489000C9489000C9489002C
:100030000C9489000C9489000C9489000C9489001C
:100040000C9489000C9489000C9489000C9489000C
:100050000C9489000C9489000C9489000C948900FC
:100060000C9489000C9489000C9489000C948900EC
:100070000C9489000C9489000C9489000C948900DC
:100080000C9489000C9489000C948900E900EB0021
:10009000ED00E400EF00F100F300F500F700F900D7
:1000A000FB00FD0051054E054B05140548054505AF
:1000B00042053F053C053905360554055705112411
:1000C0001FBECFEFD0E4DEBFCDBF11E0A0E0B1E0B6
:1000D000E2E1FBE000E00BBF02C007900D92A2320C
:1000E000B107D9F721E0A2E2B1E001C01D92A4332B
:1000F000B207E1F710E0CFE5D0E004C02197FE01A0
:100100000E947E05CE35D107C9F70E9410050C94D8
:1001100087050C94000083E391E00E94000160E0F9
:1001200080E391E00E9443016FEF80E391E00E9441
:10013000640160E08DE291E00E9443016FEF8DE287
:1001400091E00E9464016FEF8AE291E00E946401F5
:1001500083E291E00E943B0282E291E00E9433033D
:10016000789484B7877F84BF109260000FB6F894AC
:10017000A895809160008861809360001092600073
:100180000FBE08950FB6F894A8958091600088611D
:1001900080936000109260000FBE82E291E00E94A6
:1001A000D403E82F98E088E10FB6F894A8958093DF
:1001B00060000FBE90936000A8958E2F90E0FC0128
:1001C0003197EC30F10508F00895EA5BFF4F0C948D
:1001D0007E050C94EC030C94FD030C9421040C9408
:1001E0002E040C9441040C9454040C945D040C945F
:1001F00066040C9479040C948C040C949A0408956D
:1002000084B1806B84B926988AB18C618AB980E503
:100210008CBD81E08DBD8BB1837E8BB95A9A5B9A80
:100220005C9A08958BB1837E8BB98BB160FD10C051
:1002300090E0892B8BB98BB161FD10C090E0892BC8
:100240008BB98BB162FD10C090E0892B8BB90895FA
:1002500094E0892B8BB98BB161FFF0CF98E0892BAB
:100260008BB98BB162FFF0CF90E1892B8BB90895E8
:100270006EBD0DB407FEFDCF8EB50895FC017183F0
:100280006083428308951F93CF93DF93EC01162F71
:100290006A81888199810E94120160E48881998134
:1002A0000E94380160E0888199810E943801612FA5
:1002B000888199810E94380167E088819981DF9166
:1002C000CF911F910C9412011F93CF93DF93EC01F8
:1002D000162F6A81888199810E94120160E48881C9
:1002E00099810E94380161E0888199810E943801DA
:1002F000612F888199810E94380167E08881998106
:10030000DF91CF911F910C9412011F93CF93DF9334
:10031000EC01162F6A81888199810E94120160E4A4
:10032000888199810E94380162E1888199810E94C7
:100330003801612F888199810E94380167E08881A6
:100340009981DF91CF911F910C9412011F93CF934C
:10035000DF93EC01162F6A81888199810E94120136
:1003600060E4888199810E94380163E188819981E4
:100370000E943801612F888199810E94380167E0CD
:1003800088819981DF91CF911F910C9412011F9365
:10039000CF93DF93EC016A81888199810E941201D9
:1003A00061E4888199810E94380162E188819981A4
:1003B0000E94380160E0888199810E943801182FDD
:1003C00067E0888199810E941201812FDF91CF918E
:1003D0001F9108951F93CF93DF93EC016A81888169
:1003E00099810E94120161E4888199810E943801FB
:1003F00063E1888199810E94380160E08881998158
:100400000E943801182F67E0888199810E941201AB
:10041000812FDF91CF911F910895FC01718360833B
:10042000428308950F931F93CF93DF93EC018B01C9
:100430006A81888199810E941201B8010024660FA7
:10044000771F001C660F771F001C672F702D888197
:1004500099810E943801602F660F660F888199810B
:100460000E94380167E088819981DF91CF911F91C7
:100470000F910C94120110927C0087E880937A000F
:10048000089580917C00807E682B60937C00809131
:100490007A00806480937A0083EA91E00197F1F713
:1004A00000C0000080917A0086FDFCCF809178002A
:1004B0009091790008950F931F93CF93DF9361E09C
:1004C00080E391E00E948501C1E0D0E001E010E00E
:1004D0002FEF84E39CE0215080409040E1F700C082
:1004E0000000B8010C2E01C0660F0A94EAF780E301
:1004F00091E00E9485012196C930D10549F7DF912D
:10050000CF911F910F9108950F931F93CF93DF9376
:1005100061E08DE291E00E948501C1E0D0E001E060
:1005200010E02FEF84E39CE0215080409040E1F701
:1005300000C00000B8010C2E01C0660F0A94EAF753
:100540008DE291E00E9485012196C930D10549F7DD
:10055000DF91CF911F910F910895CF93DF93C0E06A
:10056000D0E0BE0187E291E00E94120287E893E1A9
:100570000197F1F700C000002196C11594E0D9075A
:1005800081F72FE78AE196E0215080409040E1F723
:1005900000C0000060E070E087E291E0DF91CF9161
:1005A0000C941202CF93DF93C0E0D0E0BE0184E24E
:1005B00091E00E94120287E893E10197F1F700C0F1
:1005C00000002196C11594E0D90781F72FE78AE151
:1005D00096E0215080409040E1F700C0000060E0CC
:1005E00070E084E291E0DF91CF910C9412020FB69B
:1005F000F894A895809160008861809360001092C3
:1006000060000FBE60E083E291E00E944102BC0105
:1006100087E291E00E94120261E083E291E00E9491
:100620004102BC0184E291E00E94120280E391E069
:100630000E94EA01682F80E391E00E9485018AE22E
:1006400091E00E94EA01682F8DE291E00E9485010D
:10065000D9CF0E945B020E9484020E94AD020E94D8
:10066000D2020E94F70282E08093C00088E180936A
:10067000C10086E08093C2001092C50084E180939F
:10068000C40008958091C00085FFFCCF6093C60030
:1006900008958091C00085FFFCCF6093C6008091D3
:1006A000C00085FFFCCF7093C60008958091C00004
:1006B00085FFFCCF4093C6009FEF940F442351F079
:1006C000FB0121918091C00085FFFCCF2093C600E3
:1006D0009150B8F708958091C00085FFFCCF4093FA
:1006E000C6005FEF540F442309F45CC0FB0120E017
:1006F00041E9DF0190818091C00085FFFCCF90939C
:10070000C60031969C91822F892780FD842790E036
:1007100095958795282F80FF02C0242F2827822FA8
:1007200090E095958795282F80FF02C0242F2827D9
:1007300030E035952795822F20FF02C0842F822735
:1007400090E095958795282F80FF02C0242F2827B9
:1007500030E035952795822F20FF02C0842F822715
:1007600090E095958795282F80FF02C0242F282799
:1007700030E035952795822F20FF02C0842F8227F5
:10078000282F2695515008F0B4CF8091C00085FFE6
:10079000FCCF2093C6008091C00087FFFCCF8091E2
:1007A000C600089520E0F1CF8091C00087FFFCCF04
:1007B0008091C60008958091C00087FFFCCF2091F2
:1007C000C60030E09091C00097FFFCCF8091C6003A
:1007D000A901582BCA010895CF9382E291E00E94AB
:1007E000D403C82F6FEF82E291E00E9442036C2F86
:1007F00082E291E0CF910C94420363E082E291E0C7
:100800000E9442034CE066E171E082E291E00E94C6
:10081000560349E06DE071E082E291E00E945603E8
:100820004CE061E071E082E291E00E945603809129
:100830000001811101C008956FEF82E291E00C94F4
:10084000420382E291E00E94DB03BC01660F771F46
:10085000680F791F82E291E00C94490382E291E0F3
:100860000E94D403682F80E391E00E94850180916B
:100870000001811101C008956FEF82E291E00C94B4
:10088000420382E291E00E94D403682F8DE291E05E
:100890000E94850180910001811101C008956FEFD0
:1008A00082E291E00C94420380E391E00E94EA012D
:1008B000682F82E291E00C9442038DE291E00E9465
:1008C000EA01682F82E291E00C94420382E291E017
:1008D0000E94DB03BC0187E291E00E94120280913A
:1008E0000001811101C008956FEF82E291E00C9444
:1008F000420382E291E00E94DB03BC0184E291E0CA
:100900000E94120280910001811101C008956FEFD1
:1009100082E291E00C94420382E291E00E94D403CF
:10092000682F83E291E00E944102BC0182E291E0E3
:100930000C9449038F929F92AF92BF92CF92DF9215
:10094000EF92FF920F931F93CF93DF9300D000D0CD
:10095000CDB7DEB782E291E00E94D403B82E82E2E6
:1009600091E00E94D403A82E82E291E00E94DB0372
:100970008C0182E291E00E94DB037C0182E291E043
:100980000E94DB034C016FEF82E291E00E94420380
:10099000E89C6001E99CD00CF89CD00C11240C154B
:1009A0001D05C4F5B80187E291E00E941202A895E6
:1009B0006B2D83E291E00E9441029A8389836A2D24
:1009C00083E291E00E9441029C838B8302C08F3FAF
:1009D000E1F0A89544E0BE016F5F7F4F82E291E0B5
:1009E0000E946B038111F3CF0F900F900F900F9027
:1009F000DF91CF911F910F91FF90EF90DF90CF90FB
:100A0000BF90AF909F908F9008950E0D1F1D0C15F5
:100A10001D0544F26FEF82E291E00E944203E4CFB1
:100A20000E948B00D8E1C8E00FB6F894A895809199
:100A30006000886180936000109260000FBE82E2C7
:100A400091E00E94D4030FB6F894A895D09360006B
:100A50000FBEC0936000A89590E0FC013197EC3088
:100A6000F10510F7EE5AFF4F0C947E050E948C049E
:100A7000DBCF0E947904D8CF0E946604D5CF0E94B4
:100A80005D04D2CF0E945404CFCF0E944104CCCF4A
:100A90000E942E04C9CF0E942104C6CF0E94FD03EC
:100AA000C3CF0E94EC03C0CF0E949A04BDCF83E362
:100AB00091E00E94FF0042E063E371E080E391E097
:100AC0000E943E0143E063E371E08DE291E00E9409
:100AD0003E0145E063E371E08AE291E00E943E015D
:100AE00040E063E371E087E291E00E940D0241E0A3
:100AF00063E371E084E291E00C940D02EE0FFF1FBE
:100B00000024001C0BBE0790F691E02D0994F89488
:020B1000FFCF15
:100B120001626F617264696E666F2E680031353AE8
:100B220032303A3334004D61722032382032303163
:020B3200390088
:00000001FF
