:100000000C945F000C9489000C9489000C94890076
:100010000C9489000C9489000C9489000C9489003C
:100020000C948B000C9489000C9489000C9489002A
:100030000C9489000C9489000C9489000C9489001C
:100040000C9489000C9489000C9489000C9489000C
:100050000C9489000C9489000C9489000C948900FC
:100060000C9489000C9489000C9489000C948900EC
:100070000C9489000C9489000C9489000C948900DC
:100080000C9489000C9489000C948900DF00E10035
:10009000E300DA00E500E700E900EB00ED00EF0027
:1000A000F100F3007E047B047804540475047204A8
:1000B0006F046C04690466046304810484041124DD
:1000C0001FBECFEFD0E4DEBFCDBF11E0A0E0B1E0B6
:1000D000ECE6F9E000E00BBF02C007900D92A23001
:1000E000B107D9F721E0A2E0B1E001C01D92A4312F
:1000F000B207E1F710E0CFE5D0E004C02197FE01A0
:100100000E94AB04CE35D107C9F70E9452040C946B
:10011000B4040C9400001F920F920FB60F9211249A
:100120008F9388E4809360008F910F900FBE0F90A3
:100130001F90189583E191E00E94F60060E080E155
:1001400091E00E9439016FEF80E191E00E945A0135
:1001500060E08DE091E00E9439016FEF8DE091E069
:100160000E945A016FEF8AE091E00E945A0183E0F9
:1001700091E00E942F0282E091E00E942703789490
:1001800098E088E10FB6F894A895809360000FBEC0
:100190009093600088E480936000A895089582E0C1
:1001A00091E00E944A03A89590E0FC013197EC3061
:1001B000F10508F00895EA5BFF4F0C94AB040C9432
:1001C00062030C9473030C9474030C9481030C94D9
:1001D00094030C94A7030C94B0030C94B9030C94EF
:1001E000CC030C94DF030C94ED03089584B1806B71
:1001F00084B926988AB18C618AB980E58CBD81E08A
:100200008DBD8BB1837E8BB95A9A5B9A5C9A0895A7
:100210008BB1837E8BB98BB160FD10C090E0892BD0
:100220008BB98BB161FD10C090E0892B8BB98BB17C
:1002300062FD10C090E0892B8BB9089594E0892B62
:100240008BB98BB161FFF0CF98E0892B8BB98BB163
:1002500062FFF0CF90E1892B8BB908956EBD0DB48C
:1002600007FEFDCF8EB50895FC0171836083428344
:1002700008951F93CF93DF93EC01162F6A81888135
:1002800099810E94080160E4888199810E942E0171
:1002900060E0888199810E942E01612F8881998177
:1002A0000E942E0167E088819981DF91CF911F9193
:1002B0000C9408011F93CF93DF93EC01162F6A81F2
:1002C000888199810E94080160E4888199810E9457
:1002D0002E0161E0888199810E942E01612F888121
:1002E00099810E942E0167E088819981DF91CF91E9
:1002F0001F910C9408011F93CF93DF93EC01162FED
:100300006A81888199810E94080160E488819981CD
:100310000E942E0162E1888199810E942E01612F45
:10032000888199810E942E0167E088819981DF91FF
:10033000CF911F910C9408011F93CF93DF93EC0191
:10034000162F6A81888199810E94080160E4888162
:1003500099810E942E0163E1888199810E942E017A
:10036000612F888199810E942E0167E0888199819F
:10037000DF91CF911F910C9408011F93CF93DF93CE
:10038000EC016A81888199810E94080161E4888179
:1003900099810E942E0162E1888199810E942E013B
:1003A00060E0888199810E942E01182F67E0888182
:1003B00099810E940801812FDF91CF911F910895AB
:1003C0001F93CF93DF93EC016A81888199810E940A
:1003D000080161E4888199810E942E0163E188818E
:1003E00099810E942E0160E0888199810E942E01EE
:1003F000182F67E0888199810E940801812FDF9181
:10040000CF911F910895FC01428308950F931F938C
:10041000CF93DF93EC018B016A81888199810E94DF
:100420000801B8010024660F771F001C660F771FB4
:10043000001C672F702D888199810E942E01602FEA
:10044000660F660F888199810E942E0167E088817E
:100450009981DF91CF911F910F910C940801109217
:100460007C0087E880937A00089580917C00807EEC
:10047000682B60937C0080917A00806480937A007E
:1004800083EA91E00197F1F700C0000080917A00C3
:1004900086FDFCCF809178009091790008950F93AC
:1004A0001F93CF93DF9361E080E191E00E947B0195
:1004B000C1E0D0E001E010E02FEF84E39CE02150A8
:1004C00080409040E1F700C00000B8010C2E01C050
:1004D000660F0A94EAF780E191E00E947B01219681
:1004E000C930D10549F7DF91CF911F910F91089540
:1004F0000F931F93CF93DF9361E08DE091E00E9413
:100500007B01C1E0D0E001E010E02FEF84E39CE04C
:10051000215080409040E1F700C00000B8010C2E4F
:1005200001C0660F0A94EAF78DE091E00E947B011A
:100530002196C930D10549F7DF91CF911F910F91D5
:100540000895CF93DF93C0E0D0E0BE0187E091E053
:100550000E94060287E893E10197F1F700C00000CE
:100560002196C11594E0D90781F72FE78AE196E03B
:10057000215080409040E1F700C0000060E070E052
:1005800087E091E0DF91CF910C940602CF93DF9347
:10059000C0E0D0E0BE0184E091E00E94060287E85E
:1005A00093E10197F1F700C000002196C11594E096
:1005B000D90781F72FE78AE196E0215080409040EB
:1005C000E1F700C0000060E070E084E091E0DF91BE
:1005D000CF910C9406020FB6F894A8958091600014
:1005E000886180936000109260000FBE60E083E03D
:1005F00091E00E943502BC0187E091E00E94060272
:1006000061E083E091E00E943502BC0184E091E06A
:100610000E94060280E191E00E94E001682F80E1E3
:1006200091E00E947B018AE091E00E94E001682F46
:100630008DE091E00E947B01D9CF0E944F020E9481
:1006400078020E94A1020E94C6020E94EB0282E090
:100650008093C00088E18093C10086E08093C2004F
:100660001092C50084E18093C40008958091C00079
:1006700085FFFCCF6093C60008958091C00085FF80
:10068000FCCF6093C6008091C00085FFFCCF7093C3
:10069000C60008958091C00087FFFCCF8091C600FE
:1006A00008958091C00087FFFCCF2091C60030E004
:1006B0009091C00097FFFCCF8091C600A901582BF4
:1006C000CA010895CF9382E091E00E944A03C82FA7
:1006D0006FEF82E091E00E9436036C2F82E091E0A0
:1006E000CF910C943603089582E091E00E9451036B
:1006F000BC01660F771F680F791F82E091E00C94B0
:100700003D0382E091E00E944A03682F80E191E07E
:100710000E947B0180910001811101C008956FEF5B
:1007200082E091E00C94360382E091E00E944A035B
:10073000682F8DE091E00E947B0180910001811182
:1007400001C008956FEF82E091E00C94360380E1E0
:1007500091E00E94E001682F82E091E00C94360362
:100760008DE091E00E94E001682F82E091E00C941E
:10077000360382E091E00E945103BC0187E091E0E2
:100780000E94060280910001811101C008956FEF5F
:1007900082E091E00C94360382E091E00E945103E4
:1007A000BC0184E091E00E94060280910001811169
:1007B00001C008956FEF82E091E00C94360382E06F
:1007C00091E00E944A03682F83E091E00E94350285
:1007D000BC0182E091E00C943D038F929F92AF9216
:1007E000BF92CF92DF92EF92FF920F931F93CF931E
:1007F000DF9382E091E00E944A03882E82E091E03C
:100800000E944A03982E82E091E00E945103EC017D
:1008100082E091E00E9451035C0182E091E00E943D
:1008200051038C016FEF82E091E00E943603A09E9D
:100830006001A19ED00CB09ED00C1124CC15DD051A
:1008400001F1BE0187E091E00E940602682D83E07D
:1008500091E00E9435027C01692D83E091E00E94C5
:1008600035028C01B70182E091E00E943D03B8019E
:1008700082E091E00E943D03CA0DDB1DCC16DD062F
:1008800001F76FEF82E091E0DF91CF911F910F911F
:10089000FF90EF90DF90CF90BF90AF909F908F90A0
:1008A0000C9436030E949A0082E091E00E944A0371
:1008B000A89590E0FC013197EC30F105A8F7EE5ACD
:1008C000FF4F0C94AB040E94DF03EECF0E94CC03D9
:1008D000EBCF0E94B903E8CF0E94B003E5CF0E949E
:1008E000A703E2CF0E949403DFCF0E948103DCCFF5
:1008F0000E947403D9CF0E947303D6CF0E94620373
:10090000D3CF0E94ED03D0CF83E191E00E94F500A8
:1009100042E063E171E080E191E00E94340143E054
:1009200063E171E08DE091E00E94340145E063E114
:1009300071E08AE091E00E94340140E063E171E0FF
:1009400087E091E00E94030241E063E171E084E00E
:1009500091E00C940302EE0FFF1F0024001C0BBE5D
:0C0960000790F691E02D0994F894FFCF69
:02096C00010088
:00000001FF
