:100000000C945F000C9489000C9489000C94890076
:100010000C9489000C9489000C9489000C9489003C
:100020000C9489000C9489000C9489000C9489002C
:100030000C9489000C9489000C9489000C9489001C
:100040000C9489000C9489000C9489000C9489000C
:100050000C9489000C9489000C9489000C948900FC
:100060000C9489000C9489000C9489000C948900EC
:100070000C9489000C9489000C9489000C948900DC
:100080000C9489000C9489000C948900F800FB0002
:10009000FE00EF000101040107010A010D0110013A
:1000A000F50013018705840581053E057E057B0566
:1000B0007805750572056F056C058A058D05112497
:1000C0001FBECFEFD0E4DEBFCDBF11E0A0E0B1E0B6
:1000D000EEE7FBE000E00BBF02C007900D92A232FA
:1000E000B107D9F721E0A2E2B1E001C01D92A4332B
:1000F000B207E1F710E0CFE5D0E004C02197FE01A0
:100100000E94B405CE35D107C9F70E9427050C948B
:10011000BD050C94000083E391E00E94170160E0AC
:1001200080E391E00E945A016FEF80E391E00E942A
:100130007B0160E08DE291E00E945A016FEF8DE259
:1001400091E00E947B016FEF8AE291E00E947B01C7
:1001500083E291E00E94520282E291E00E944A030F
:10016000789484B7877F84BF109260000FB6F894AC
:10017000A895809160008861809360001092600073
:100180000FBE0895CF930FB6F894A89580916000A4
:10019000886180936000109260000FBE6FEF8DE267
:1001A00091E00E949C0182E291E00E94EB03C82F43
:1001B00060E08DE291E00E949C0199E288E10FB637
:1001C000F894A895809360000FBE90936000A89566
:1001D0008C2F90E0FC013197EC30F10510F0CF91BD
:1001E0000895EA5BFF4F0C94B405CF910C94A304DF
:1001F000CF910C940304CF910C941404CF910C94E0
:100200003804CF910C944504CF910C945804CF91AD
:100210000C946B04CF910C947404CF910C947D04D6
:10022000CF910C949004CF910C94B104089584B1B3
:10023000806B84B926988AB18C618AB980E58CBDBF
:1002400081E08DBD8BB1837E8BB95A9A5B9A5C9AA3
:1002500008958BB1837E8BB98BB160FD10C090E0A7
:10026000892B8BB98BB161FD10C090E0892B8BB9C4
:100270008BB162FD10C090E0892B8BB9089594E09A
:10028000892B8BB98BB161FFF0CF98E0892B8BB9AB
:100290008BB162FFF0CF90E1892B8BB908956EBDD1
:1002A0000DB407FEFDCF8EB50895FC017183608308
:1002B000428308951F93CF93DF93EC01162F6A8139
:1002C000888199810E94290160E4888199810E9436
:1002D0004F0160E0888199810E944F01612F8881E0
:1002E00099810E944F0167E088819981DF91CF91C8
:1002F0001F910C9429011F93CF93DF93EC01162FCC
:100300006A81888199810E94290160E488819981AC
:100310000E944F0161E0888199810E944F01612F05
:10032000888199810E944F0167E088819981DF91DE
:10033000CF911F910C9429011F93CF93DF93EC0170
:10034000162F6A81888199810E94290160E4888141
:1003500099810E944F0162E1888199810E944F0139
:10036000612F888199810E944F0167E0888199817E
:10037000DF91CF911F910C9429011F93CF93DF93AD
:10038000EC01162F6A81888199810E94290160E41D
:10039000888199810E944F0163E1888199810E943F
:1003A0004F01612F888199810E944F0167E0888108
:1003B0009981DF91CF911F910C9429011F93CF93C5
:1003C000DF93EC016A81888199810E94290161E4AF
:1003D000888199810E944F0162E1888199810E9400
:1003E0004F0160E0888199810E944F01182F67E0DA
:1003F000888199810E942901812FDF91CF911F91DE
:1004000008951F93CF93DF93EC016A8188819981CE
:100410000E94290161E4888199810E944F0163E172
:10042000888199810E944F0160E0888199810E94B2
:100430004F01182F67E0888199810E942901812F3F
:10044000DF91CF911F910895FC01718360834283F6
:1004500008950F931F93CF93DF93EC018B016A8173
:10046000888199810E942901B8010024660F771FB5
:10047000001C660F771F001C672F702D88819981E3
:100480000E944F01602F660F660F888199810E943C
:100490004F0167E088819981DF91CF911F910F9182
:1004A0000C94290110927C0087E880937A000895CB
:1004B00080917C00807E682B60937C0080917A0024
:1004C000806480937A0083EA91E00197F1F700C09D
:1004D000000080917A0086FDFCCF80917800909199
:1004E000790008950F931F93CF93DF9361E080E32A
:1004F00091E00E949C01C1E0D0E001E010E02FEF0C
:1005000084E39CE0215080409040E1F700C000006F
:10051000B8010C2E01C0660F0A94EAF780E391E05F
:100520000E949C012196C930D10549F7DF91CF91F6
:100530001F910F9108950F931F93CF93DF9361E065
:100540008DE291E00E949C01C1E0D0E001E010E06A
:100550002FEF84E39CE0215080409040E1F700C001
:100560000000B8010C2E01C0660F0A94EAF78DE274
:1005700091E00E949C012196C930D10549F7DF9195
:10058000CF911F910F910895CF93DF93C0E0D0E0FA
:10059000BE0187E291E00E94290287E893E101977A
:1005A000F1F700C000002196C11594E0D90781F74A
:1005B0002FE78AE196E0215080409040E1F700C0AB
:1005C000000060E070E087E291E0DF91CF910C9451
:1005D0002902CF93DF93C0E0D0E0BE0184E291E036
:1005E0000E94290287E893E10197F1F700C000001B
:1005F0002196C11594E0D90781F72FE78AE196E0AB
:10060000215080409040E1F700C0000060E070E0C1
:1006100084E291E0DF91CF910C9429020FB6F89417
:10062000A8958091600088618093600010926000BE
:100630000FBE60E083E291E00E945802BC0187E2B5
:1006400091E00E94290261E083E291E00E94580259
:10065000BC0184E291E00E94290280E391E00E94C3
:100660000102682F80E391E00E949C018AE291E000
:100670000E940102682F8DE291E00E949C01D9CF77
:100680000E9472020E949B020E94C4020E94E90220
:100690000E940E0382E08093C00088E18093C10035
:1006A00086E08093C2001092C50084E18093C4006C
:1006B00008958091C00085FFFCCF6093C600089527
:1006C0008091C00085FFFCCF6093C6008091C00080
:1006D00085FFFCCF7093C60008958091C00085FF10
:1006E000FCCF4093C6009FEF940F442351F0FB01D1
:1006F00021918091C00085FFFCCF2093C6009150CE
:10070000B8F708958091C00085FFFCCF4093C600E4
:100710005FEF540F442309F45CC0FB0120E041E982
:10072000DF0190818091C00085FFFCCF9093C600CF
:1007300031969C91822F892780FD842790E09595A2
:100740008795282F80FF02C0242F2827822F90E032
:1007500095958795282F80FF02C0242F282730E009
:1007600035952795822F20FF02C0842F822790E0A5
:1007700095958795282F80FF02C0242F282730E0E9
:1007800035952795822F20FF02C0842F822790E085
:1007900095958795282F80FF02C0242F282730E0C9
:1007A00035952795822F20FF02C0842F8227282F7E
:1007B0002695515008F0B4CF8091C00085FFFCCF42
:1007C0002093C6008091C00087FFFCCF8091C600B7
:1007D000089520E0F1CF8091C00087FFFCCF809189
:1007E000C60008958091C00087FFFCCF2091C6000D
:1007F00030E09091C00097FFFCCF8091C600A90126
:10080000582BCA010895CF9382E291E00E94EB0336
:10081000C82F6FEF82E291E00E9459036C2F82E2B1
:1008200091E0CF910C94590363E082E291E00E9441
:1008300059034CE066E171E082E291E00E946D03B1
:1008400049E06DE071E082E291E00E946D034CE0CE
:1008500061E071E082E291E00E946D03809100010D
:10086000811101C008956FEF82E291E00C94590369
:1008700082E291E00E94F203BC01660F771F680FCD
:10088000791F82E291E00C94600382E291E00E9481
:10089000EB03682F80E391E00E949C0180910001AE
:1008A000811101C008956FEF82E291E00C94590329
:1008B00082E291E00E94EB03682F8DE291E00E94BA
:1008C0009C0180910001811101C008956FEF82E2C7
:1008D00091E00C94590380E391E00E940102682F9B
:1008E00082E291E00C9459038DE291E00E940102B2
:1008F000682F82E291E00C94590382E291E00E9419
:10090000F203BC0187E291E00E942902809100017C
:10091000811101C008956FEF82E291E00C945903B8
:1009200082E291E00E94F203BC0184E291E00E9425
:10093000290280910001811101C008956FEF82E2C8
:1009400091E00C94590382E291E00E94EB03682F3E
:1009500083E291E00E945802BC0182E291E00C9493
:1009600060038F929F92AF92BF92CF92DF92EF92ED
:10097000FF920F931F93CF93DF9300D000D0CDB79A
:10098000DEB782E291E00E94EB03B82E82E291E0B2
:100990000E94EB03A82E82E291E00E94F2038C01F8
:1009A00082E291E00E94F2037C0182E291E00E94E7
:1009B000F2034C016FEF82E291E00E945903E89C40
:1009C0006001E99CD00CF89CD00C11240C151D057D
:1009D000C4F5B80187E291E00E942902A8956B2D29
:1009E00083E291E00E9458029A8389836A2D83E210
:1009F00091E00E9458029C838B8302C08F3FE1F0FC
:100A0000A89544E0BE016F5F7F4F82E291E00E94B3
:100A100082038111F3CF0F900F900F900F90DF9111
:100A2000CF911F910F91FF90EF90DF90CF90BF90EB
:100A3000AF909F908F9008950E0D1F1D0C151D05F2
:100A400044F26FEF82E291E00E945903E4CF0E94EA
:100A50008B006FEF80E391E00E949C012FE78AE119
:100A600096E0215080409040E1F700C0000060E037
:100A700080E391E00E949C0118E1D9E20FB6F8945E
:100A8000A89580916000886180936000109260005A
:100A90000FBE6FEF8DE291E00E949C0182E291E037
:100AA0000E94EB03C82F60E08DE291E00E949C0160
:100AB0000FB6F894A895109360000FBED093600015
:100AC000A8958C2F90E0FC013197EC30F105B0F641
:100AD000EE5AFF4F0C94B4050E94A304CFCF0E949E
:100AE0009004CCCF0E947D04C9CF0E947404C6CF6D
:100AF0000E946B04C3CF0E945804C0CF0E944504DB
:100B0000BDCF0E943804BACF0E941404B7CF0E9410
:100B10000304B4CF0E94B104B1CF83E391E00E94FB
:100B2000160142E063E371E080E391E00E94550129
:100B300043E063E371E08DE291E00E94550145E0FE
:100B400063E371E08AE291E00E94550140E063E3D3
:100B500071E087E291E00E94240241E063E371E0EA
:100B600084E291E00C942402EE0FFF1F0024001C8D
:0E0B70000BBE0790F691E02D0994F894FFCF8C
:100B7E0001626F617264696E666F2E680031353A7C
:100B8E0033363A3030004D617220323820323031F7
:020B9E0039001C
:00000001FF
