:100000000C9447000C9464000C9464000C946400FD
:100010000C9464000C9464000C9464000C946400D0
:100020000C9466000C9464000C9464000C946400BE
:100030000C9464000C9464000C9464000C946400B0
:100040000C9464000C9464000C9464000C946400A0
:100050000C9464000C9464000C9464000C94640090
:100060000C9464000C9464000C9464000C94640080
:100070000C9464000C9464000C9464000C94640070
:100080000C9464000C9464000C94640043031124E9
:100090001FBECFEFD0E4DEBFCDBF21E0A0E0B1E0D6
:1000A00001C01D92A231B207E1F710E0C7E4D0E031
:1000B00004C02197FE010E946A03C634D107C9F724
:1000C0000E9429030C9473030C9400001F920F925A
:1000D0000FB60F92112491E085B1892785B92FEFD2
:1000E00034E38CE0215030408040E1F700C0000054
:1000F000F3CF81E191E00E94B00060E08EE091E0FA
:100100000E94F3006FEF8EE091E00E94140160E026
:100110008BE091E00E94F3006FEF8BE091E00E9492
:1001200014016FEF88E091E00E94140181E091E0FA
:100130000E94E90180E091E00C94D60280E091E019
:100140000E94F202823049F0833029F0813009F0B8
:1001500008950C940A030C941C030C941B0308953B
:1001600084B1806B84B926988AB18C618AB980E5A4
:100170008CBD81E08DBD8BB1837E8BB95A9A5B9A21
:100180005C9A08958BB1837E8BB98BB160FD10C0F2
:1001900090E0892B8BB98BB161FD10C090E0892B69
:1001A0008BB98BB162FD10C090E0892B8BB908959B
:1001B00094E0892B8BB98BB161FFF0CF98E0892B4C
:1001C0008BB98BB162FFF0CF90E1892B8BB9089589
:1001D0006EBD0DB407FEFDCF8EB50895FC01718391
:1001E0006083428308951F93CF93DF93EC01162F12
:1001F0006A81888199810E94C20060E48881998126
:100200000E94E80060E0888199810E94E800612FE7
:10021000888199810E94E80067E088819981DF9157
:10022000CF911F910C94C2001F93CF93DF93EC01E9
:10023000162F6A81888199810E94C20060E48881BA
:1002400099810E94E80061E0888199810E94E8001C
:10025000612F888199810E94E80067E088819981F7
:10026000DF91CF911F910C94C2001F93CF93DF9326
:10027000EC01162F6A81888199810E94C20060E496
:10028000888199810E94E80062E1888199810E94B9
:10029000E800612F888199810E94E80067E08881E9
:1002A0009981DF91CF911F910C94C2001F93CF933E
:1002B000DF93EC01162F6A81888199810E94C20028
:1002C00060E4888199810E94E80063E188819981D6
:1002D0000E94E800612F888199810E94E80067E010
:1002E00088819981DF91CF911F910C94C2001F9357
:1002F000CF93DF93EC016A81888199810E94C200CB
:1003000061E4888199810E94E80062E18881998195
:100310000E94E80060E0888199810E94E800182F1F
:1003200067E0888199810E94C200812FDF91CF917F
:100330001F9108951F93CF93DF93EC016A81888109
:1003400099810E94C20061E4888199810E94E8003D
:1003500063E1888199810E94E80060E08881998149
:100360000E94E800182F67E0888199810E94C200EE
:10037000812FDF91CF911F910895FC014283089551
:100380000F931F93CF93DF93EC018B016A818881D8
:1003900099810E94C200B8010024660F771F001CDB
:1003A000660F771F001C672F702D888199810E942E
:1003B000E800602F660F660F888199810E94E8002F
:1003C00067E088819981DF91CF911F910F910C9403
:1003D000C20010927C0087E880937A000895809193
:1003E0007C00807E682B60937C0080917A00806422
:1003F00080937A0083EA91E00197F1F700C0000052
:1004000080917A0086FDFCCF8091780090917900F0
:1004100008950F931F93CF93DF9361E08EE091E0F7
:100420000E943501C1E0D0E001E010E02FEF84E34D
:100430009CE0215080409040E1F700C00000B801EE
:100440000C2E01C0660F0A94EAF78EE091E00E943C
:1004500035012196C930D10549F7DF91CF911F9120
:100460000F9108950F931F93CF93DF9361E08BE07B
:1004700091E00E943501C1E0D0E001E010E02FEFF3
:1004800084E39CE0215080409040E1F700C00000F0
:10049000B8010C2E01C0660F0A94EAF78BE091E0D8
:1004A0000E9435012196C930D10549F7DF91CF91DE
:1004B0001F910F910895CF93DF93C0E0D0E0BE016C
:1004C00085E091E00E94C00187E893E10197F1F790
:1004D00000C000002196C11594E0D90781F72FE7ED
:1004E0008AE196E0215080409040E1F700C0000092
:1004F00060E070E085E091E0DF91CF910C94C00165
:10050000CF93DF93C0E0D0E0BE0182E091E00E9493
:10051000C00187E893E10197F1F700C00000219640
:10052000C11594E0D90781F72FE78AE196E02150C1
:1005300080409040E1F700C0000060E070E082E0A1
:1005400091E0DF91CF910C94C00160E081E091E0F7
:100550000E94EF01BC0185E091E00E94C00161E0D2
:1005600081E091E00E94EF01BC0182E091E00E94F5
:10057000C0018EE091E00E949A01682F8EE091E028
:100580000E94350188E091E00E949A01682F8BE07B
:1005900091E00E943501D9CF0E9409020E943202E7
:1005A0000E945B020E9480020E94A50288E1809363
:1005B000C10086E08093C2001092C5008FE1809355
:1005C000C40008956093C6008091C00086FFFCCFF0
:1005D00008956093C6007093C6008091C00086FFA6
:1005E000FCCF08958091C00087FFFCCF8091C600AA
:1005F00008958091C00087FFFCCF2091C60030E0B5
:100600009091C00097FFFCCF8091C600A901582BA4
:10061000CA010895CF9380E091E00E94F202C82FB2
:100620006FEF80E091E00E94E2026C2F80E091E0A9
:10063000CF910C94E202089580E091E00E94F902CB
:10064000BC01660F771F680F791F80E091E00C9462
:10065000E9020E94790080E091E00E94F20282307B
:1006600061F0833069F08130B1F70E940A0380E0C5
:1006700091E00E94F2028230A1F70E941B03EBCFAF
:100680000E941C03E8CF81E191E00E94AF0042E0AC
:1006900061E171E08EE091E00E94EE0043E061E1F3
:1006A00071E08BE091E00E94EE0045E061E171E0D5
:1006B00088E091E00E94EE0040E061E171E085E0B9
:1006C00091E00E94BD0141E061E171E082E091E0D2
:1006D0000C94BD01EE0FFF1F0024001C0BBE079001
:0A06E000F691E02D0994F894FFCF85
:00000001FF
