:100000000C9447000C9464000C9464000C946400FD
:100010000C9464000C9464000C9464000C946400D0
:100020000C9464000C9464000C9464000C946400C0
:100030000C9464000C9464000C9464000C946400B0
:100040000C9464000C9464000C9464000C946400A0
:100050000C9464000C9464000C9464000C94640090
:100060000C9464000C9464000C9464000C94640080
:100070000C9464000C9464000C9464000C94640070
:100080000C9464000C9464000C94640070011124BE
:100090001FBECFEFD0E4DEBFCDBF21E0A0E0B1E0D6
:1000A00001C01D92A430B207E1F710E0C7E4D0E030
:1000B00004C02197FE010E947B01C634D107C9F715
:1000C0000E9458010C9484010C9400000895249A15
:1000D000259A2698279A529A539A549A80E58CBD6D
:1000E00081E08DBD5A985B985C985A9A5B9A5C9AAD
:1000F00008955A985B985C9860FD5A9A61FD5B9AE6
:1001000062FD5C9A08956EBD0DB407FEFDCF8EB5FD
:100110000895FC0171836083428308951F93CF93F8
:10012000DF93EC01162F6A81888199810E94790002
:1001300060E4888199810E94830060E088819981D0
:100140000E948300612F888199810E94830067E06B
:1001500088819981DF91CF911F910C9479001F9331
:10016000CF93DF93EC01162F6A81888199810E94D9
:10017000790060E4888199810E94830061E0888130
:1001800099810E948300612F888199810E94830058
:1001900067E088819981DF91CF911F910C9479005C
:1001A0001F93CF93DF93EC01162F6A818881998189
:1001B0000E94790060E4888199810E94830062E155
:1001C000888199810E948300612F888199810E9492
:1001D000830067E088819981DF91CF911F910C9412
:1001E00079001F93CF93DF93EC01162F6A818881EA
:1001F00099810E94790060E4888199810E9483003E
:1002000063E1888199810E948300612F88819981AF
:100210000E94830067E088819981DF91CF911F91CF
:100220000C9479001F93CF93DF93EC016A8188814E
:1002300099810E94790061E4888199810E948300FC
:1002400062E1888199810E94830060E088819981C0
:100250000E948300182F67E0888199810E947900AD
:10026000812FDF91CF911F9108951F93CF93DF933B
:10027000EC016A81888199810E94790061E488811A
:1002800099810E94830063E1888199810E948300A3
:1002900060E0888199810E948300182F67E088813F
:1002A00099810E947900812FDF91CF911F9108954C
:1002B00083E091E00E94670060E080E091E00E94AE
:1002C0008E006FEF80E091E00E94AF0080E091E04F
:1002D0000E943501682F80E091E00E94D000F6CFA7
:1002E00083E091E00E94660042E063E071E080E01C
:1002F00091E00C948900EE0FFF1F0024001C0BBE40
:0C0300000790F691E02D0994F894FFCFCF
:00000001FF
