:100000000C9447000C9464000C9464000C946400FD
:100010000C9464000C9464000C9464000C946400D0
:100020000C9466000C9464000C9464000C946400BE
:100030000C9464000C9464000C9464000C946400B0
:100040000C9464000C9464000C9464000C946400A0
:100050000C9464000C9464000C9464000C94640090
:100060000C9464000C9464000C9464000C94640080
:100070000C9464000C9464000C9464000C94640070
:100080000C9464000C9464000C946400C601112468
:100090001FBECFEFD0E4DEBFCDBF21E0A0E0B1E0D6
:1000A00001C01D92AA30B207E1F710E0C7E4D0E02A
:1000B00004C02197FE010E94DF01C634D107C9F7B1
:1000C0000E949E010C94E8010C9400001F920F9274
:1000D0000FB60F921124289A2FEF84E39CE0215051
:1000E00080409040E1F700C0000028982FEF84E3A3
:1000F0009CE0215080409040E1F700C00000EBCF31
:100100000895249A259A2698279A529A539A549A8F
:1001100080E58CBD81E08DBD5A985B985C985A9AB9
:100120005B9A5C9A08955A985B985C9860FD5A9A1D
:1001300061FD5B9A62FD5C9A08956EBD0DB407FE89
:10014000FDCF8EB50895FC017183608342830895CD
:100150001F93CF93DF93EC01162F6A8188819981D9
:100160000E94930060E4888199810E949D0060E074
:10017000888199810E949D00612F888199810E94C8
:100180009D0067E088819981DF91CF911F910C9448
:1001900093001F93CF93DF93EC01162F6A81888120
:1001A00099810E94930060E4888199810E949D005A
:1001B00061E0888199810E949D00612F88819981E9
:1001C0000E949D0067E088819981DF91CF911F9106
:1001D0000C9493001F93CF93DF93EC01162F6A8149
:1001E000888199810E94930060E4888199810E94AE
:1001F0009D0062E1888199810E949D00612F888124
:1002000099810E949D0067E088819981DF91CF915B
:100210001F910C9493001F93CF93DF93EC01162F43
:100220006A81888199810E94930060E48881998124
:100230000E949D0063E1888199810E949D00612F49
:10024000888199810E949D0067E088819981DF9172
:10025000CF911F910C9493001F93CF93DF93EC01E8
:100260006A81888199810E94930061E488819981E3
:100270000E949D0062E1888199810E949D0060E05A
:10028000888199810E949D00182F67E0888199815B
:100290000E949300812FDF91CF911F9108951F93AA
:1002A000CF93DF93EC016A81888199810E9493004A
:1002B00061E4888199810E949D0063E18881998130
:1002C0000E949D0060E0888199810E949D00182F06
:1002D00067E0888199810E949300812FDF91CF91FF
:1002E0001F910895FC01428308950F931F93CF93AC
:1002F000DF93EC018B016A81888199810E949300D0
:10030000B8010024660F771F001C660F771F001CC2
:10031000672F702D888199810E949D00602F660F44
:10032000660F888199810E949D0067E0888199818C
:10033000DF91CF911F910F910C949300209A2898F0
:10034000A895789489E091E00E94810060E086E0C1
:1003500091E00E94A8006FEF86E091E00E94C90042
:100360006FEF83E091E00E94C900C0E0D0E0BE01E1
:1003700080E091E00E94750182E48A95F1F700C067
:100380002196C11584E0D80781F3F1CF89E091E08F
:100390000E94800042E069E071E086E091E00E9406
:1003A000A30045E069E071E083E091E00E94A300D2
:1003B00040E069E071E080E091E00C947201EE0FA2
:1003C000FF1F0024001C0BBE0790F691E02D09943E
:0403D000F894FFCFCF
:00000001FF
