:100000000C9447000C9464000C9464000C946400FD
:100010000C9464000C9464000C9464000C946400D0
:100020000C9466000C9464000C9464000C946400BE
:100030000C9464000C9464000C9464000C946400B0
:100040000C9464000C9464000C9464000C946400A0
:100050000C9464000C9464000C9464000C94640090
:100060000C9464000C9464000C9464000C94640080
:100070000C9464000C9464000C9464000C94640070
:100080000C9464000C9464000C946400E801112446
:100090001FBECFEFD0E4DEBFCDBF21E0A0E0B1E0D6
:1000A00001C01D92AB30B207E1F710E0C7E4D0E029
:1000B00004C02197FE010E940102C634D107C9F78E
:1000C0000E94BE010C940A020C9400001F920F9231
:1000D0000FB60F921124289A2FEF84E39CE0215051
:1000E00080409040E1F700C0000028982FEF84E3A3
:1000F0009CE0215080409040E1F700C00000EBCF31
:100100000895249A259A2698279A529A539A549A8F
:1001100080E58CBD81E08DBD5A985B985C985A9AB9
:100120005B9A5C9A08955A985B985C9860FD5A9A1D
:1001300061FD5B9A62FD5C9A08956EBD0DB407FE89
:10014000FDCF8EB50895FC017183608342830895CD
:100150001F93CF93DF93EC01162F6A8188819981D9
:100160000E94930060E4888199810E949D0060E074
:10017000888199810E949D00612F888199810E94C8
:100180009D0067E088819981DF91CF911F910C9448
:1001900093001F93CF93DF93EC01162F6A81888120
:1001A00099810E94930060E4888199810E949D005A
:1001B00061E0888199810E949D00612F88819981E9
:1001C0000E949D0067E088819981DF91CF911F9106
:1001D0000C9493001F93CF93DF93EC01162F6A8149
:1001E000888199810E94930060E4888199810E94AE
:1001F0009D0062E1888199810E949D00612F888124
:1002000099810E949D0067E088819981DF91CF915B
:100210001F910C9493001F93CF93DF93EC01162F43
:100220006A81888199810E94930060E48881998124
:100230000E949D0063E1888199810E949D00612F49
:10024000888199810E949D0067E088819981DF9172
:10025000CF911F910C9493001F93CF93DF93EC01E8
:100260006A81888199810E94930061E488819981E3
:100270000E949D0062E1888199810E949D0060E05A
:10028000888199810E949D00182F67E0888199815B
:100290000E949300812FDF91CF911F9108951F93AA
:1002A000CF93DF93EC016A81888199810E9493004A
:1002B00061E4888199810E949D0063E18881998130
:1002C0000E949D0060E0888199810E949D00182F06
:1002D00067E0888199810E949300812FDF91CF91FF
:1002E0001F910895FC01428308950F931F93CF93AC
:1002F000DF93EC018B016A81888199810E949300D0
:10030000B8010024660F771F001C660F771F001CC2
:10031000672F702D888199810E949D00602F660F44
:10032000660F888199810E949D0067E0888199818C
:10033000DF91CF911F910F910C94930010927C004C
:1003400087E880937A00089580917C00807E682BF6
:1003500060937C0080917A00806480937A0083EAC5
:1003600091E00197F1F700C0000080917A0086FDCE
:10037000FCCF8091780090917900089581E6809378
:100380006000209A2898A89578948AE091E00E94CD
:10039000810060E087E091E00E94A8006FEF87E0B5
:1003A00091E00E94C9006FEF84E091E00E94C900D3
:1003B00080E091E00E949E0166E080E091E00E9472
:1003C000A401BC0181E091E00E947501A895F4CFE1
:1003D0008AE091E00E94800042E06AE071E087E0FC
:1003E00091E00E94A30045E06AE071E084E091E0C2
:1003F0000E94A30040E06AE071E081E091E00C948B
:100400007201EE0FFF1F0024001C0BBE0790F69137
:08041000E02D0994F894FFCFE0
:00000001FF
