:100000000C945D000C9487000C9487000C9487007E
:100010000C9487000C9487000C9487000C94870044
:100020000C9487000C9487000C9487000C94870034
:100030000C9487000C9487000C9487000C94870024
:100040000C9487000C9487000C9487000C94870014
:100050000C9487000C9487000C9487000C94870004
:100060000C9487000C9487000C9487000C948700F4
:100070000C9487000C9487000C9487000C948700E4
:100080000C9487000C9487000C948700E700E9002B
:10009000EB00E200ED00EF00F100F300F500F700E7
:1000A000F9002D042A042704F103240421041E046A
:1000B0001B04180415043004330411241FBECFEFB1
:1000C000D0E4DEBFCDBF11E0A0E0B1E0EAECF8E0A3
:1000D00000E00BBF02C007900D92A230B107D9F724
:1000E00021E0A2E0B1E001C01D92A431B207E1F726
:1000F00010E0CDE5D0E004C02197FE010E945A0433
:10010000CC35D107C9F70E94EC030C9463040C941E
:100110000000109260000FB6F894A89580916000DE
:10012000886180936000109260000FBE83E191E0CF
:100130000E94FC0060E080E191E00E943F016FEFCF
:1001400080E191E00E94600160E08DE091E00E941A
:100150003F016FEF8DE091E00E9460016FEF8AE058
:1001600091E00E94600183E091E00E94350282E00C
:1001700091E00E942D03789408950FB6F894A89505
:1001800080916000886180936000109260000FBED3
:1001900082E091E00E944903E82F98E088E10FB6E1
:1001A000F894A895809360000FBE9093600080E45F
:1001B00080936000A8958E2F90E0FC013197EB3082
:1001C000F10508F00895EA5BFF4F0C945A040C9473
:1001D00061030C9472030C9473030C9480030C94CD
:1001E00093030C94A6030C94AF030C94B8030C94E3
:1001F000CB030C94DE03089584B1806B84B92698F8
:100200008AB18C618AB980E58CBD81E08DBD8BB1EE
:10021000837E8BB95A9A5B9A5C9A08958BB1837EE0
:100220008BB98BB160FD10C090E0892B8BB98BB17D
:1002300061FD10C090E0892B8BB98BB162FD10C0BD
:1002400090E0892B8BB9089594E0892B8BB98BB101
:1002500061FFF0CF98E0892B8BB98BB162FFF0CFB3
:1002600090E1892B8BB908956EBD0DB407FEFDCFCB
:100270008EB50895FC0171836083428308951F93B6
:10028000CF93DF93EC01162F6A81888199810E94B8
:100290000E0160E4888199810E94340160E08881C8
:1002A00099810E943401612F888199810E943401D3
:1002B00067E088819981DF91CF911F910C940E01A5
:1002C0001F93CF93DF93EC01162F6A818881998168
:1002D0000E940E0160E4888199810E94340161E0EE
:1002E000888199810E943401612F888199810E94BF
:1002F000340167E088819981DF91CF911F910C943F
:100300000E011F93CF93DF93EC01162F6A81888132
:1003100099810E940E0160E4888199810E943401D4
:1003200062E1888199810E943401612F88819981DD
:100330000E94340167E088819981DF91CF911F91FC
:100340000C940E011F93CF93DF93EC01162F6A815B
:10035000888199810E940E0160E4888199810E94C0
:10036000340163E1888199810E943401612F888181
:1003700099810E94340167E088819981DF91CF9152
:100380001F910C940E011F93CF93DF93EC016A81B0
:10039000888199810E940E0161E4888199810E947F
:1003A000340162E1888199810E94340160E0888192
:1003B00099810E943401182F67E0888199810E94F9
:1003C0000E01812FDF91CF911F9108951F93CF933D
:1003D000DF93EC016A81888199810E940E0161E4BA
:1003E000888199810E94340163E1888199810E940A
:1003F000340160E0888199810E943401182F67E000
:10040000888199810E940E01812FDF91CF911F91E8
:100410000895FC01428308950F931F93CF93DF93B8
:10042000EC018B016A81888199810E940E01B801DB
:100430000024660F771F001C660F771F001C672FB4
:10044000702D888199810E943401602F660F660F9C
:10045000888199810E94340167E088819981DF91C8
:10046000CF911F910F910C940E0110927C0087E8A0
:1004700080937A00089580917C00807E682B609341
:100480007C0080917A00806480937A0083EA91E016
:100490000197F1F700C0000080917A0086FDFCCF43
:1004A000809178009091790008950F931F93CF93D6
:1004B000DF9361E080E191E00E948101C1E0D0E042
:1004C00001E010E02FEF84E39CE021508040904059
:1004D000E1F700C00000B8010C2E01C0660F0A94BD
:1004E000EAF780E191E00E9481012196C930D105AF
:1004F00049F7DF91CF911F910F9108950F931F93AB
:10050000CF93DF9361E08DE091E00E948101C1E033
:10051000D0E001E010E02FEF84E39CE02150804028
:100520009040E1F700C00000B8010C2E01C0660F3A
:100530000A94EAF78DE091E00E9481012196C9308A
:10054000D10549F7DF91CF911F910F910895CF9376
:10055000DF93C0E0D0E0BE0187E091E00E940C0292
:1005600087E893E10197F1F700C000002196C115DB
:1005700094E0D90781F72FE78AE196E02150804087
:100580009040E1F700C0000060E070E087E091E09B
:10059000DF91CF910C940C02CF93DF93C0E0D0E0B9
:1005A000BE0184E091E00E940C0287E893E101978C
:1005B000F1F700C000002196C11594E0D90781F73A
:1005C0002FE78AE196E0215080409040E1F700C09B
:1005D000000060E070E084E091E0DF91CF910C9446
:1005E0000C020FB6F894A895809160008861809302
:1005F0006000109260000FBE60E083E091E00E9416
:100600003B02BC0187E091E00E940C0261E083E0C4
:1006100091E00E943B02BC0184E091E00E940C0248
:1006200080E191E00E94E601682F80E191E00E9464
:1006300081018AE091E00E94E601682F8DE091E05F
:100640000E948101D9CF0E9455020E947E020E9421
:10065000A7020E94CC020E94F10288E18093C100AF
:1006600086E08093C2001092C5008FE18093C400A1
:1006700008956093C6008091C00086FFFCCF089566
:100680006093C6007093C6008091C00086FFFCCFC7
:1006900008958091C00087FFFCCF8091C600089527
:1006A0008091C00087FFFCCF2091C60030E0909180
:1006B000C00097FFFCCF8091C600A901582BCA014A
:1006C0000895CF9382E091E00E944903C82F6FEF15
:1006D00082E091E00E9439036C2F82E091E0CF919B
:1006E0000C943903089582E091E00E945003BC010C
:1006F000660F771F680F791F82E091E00C9440032A
:1007000082E091E00E944903682F80E191E00E941D
:10071000810180910001811101C008956FEF82E095
:1007200091E00C94390382E091E00E944903682F24
:100730008DE091E00E94810180910001811101C052
:1007400008956FEF82E091E00C94390380E191E02D
:100750000E94E601682F82E091E00C9439038DE05D
:1007600091E00E94E601682F82E091E00C94390349
:1007700082E091E00E945003BC0187E091E00E947A
:100780000C0280910001811101C008956FEF82E099
:1007900091E00C94390382E091E00E945003BC0187
:1007A00084E091E00E940C0280910001811101C05F
:1007B00008956FEF82E091E00C94390382E091E0BC
:1007C0000E944903682F83E091E00E943B02BC0134
:1007D00082E091E00C9440030E94890018E1D8E087
:1007E000C0E40FB6F894A89580916000886180936A
:1007F0006000109260000FBE82E091E00E94490309
:100800000FB6F894A895109360000FBED0936000C7
:10081000C0936000A89590E0FC013197EB30F105A2
:1008200000F7EF5AFF4F0C945A040E94CB03D9CF24
:100830000E94B803D6CF0E94AF03D3CF0E94A60375
:10084000D0CF0E949303CDCF0E948003CACF0E94D5
:100850007303C7CF0E947203C4CF0E946103C1CF4C
:100860000E94DE03BECF83E191E00E94FB0042E0E4
:1008700063E171E080E191E00E943A0143E063E1CD
:1008800071E08DE091E00E943A0145E063E171E0A2
:100890008AE091E00E943A0140E063E171E087E084
:1008A00091E00E94090241E063E171E084E091E09F
:1008B0000C940902EE0FFF1F0024001C0BBE0790D2
:0A08C000F691E02D0994F894FFCFA3
:0208CA0001002B
:00000001FF
