:100000000C9446000C9450000C9450000C9450003A
:100010000C9450000C9450000C9450000C94500020
:100020000C9450000C9450000C9450000C94500010
:100030000C9450000C9450000C9450000C94500000
:100040000C9450000C9450000C9450000C945000F0
:100050000C9450000C9450000C9450000C945000E0
:100060000C9450000C9450000C9450000C945000D0
:100070000C9450000C9450000C9450000C945000C0
:100080000C9450000C9450000C94500011241FBE8E
:10009000CFEFD0E4DEBFCDBF0E9486000C9490006D
:1000A0000C940000CF93DF93CDB7DEB784E290E0ED
:1000B00024E230E0F9012081206BFC0120838CE4F4
:1000C00090E021E5FC0120830000DF91CF910895AD
:1000D000CF93DF931F92CDB7DEB789838EE490E094
:1000E0002981FC0120838DE490E0FC0180818095D2
:1000F000881F8827881F882309F0F5CF8EE490E0B9
:10010000FC0180810F90DF91CF910895CF93DF9311
:10011000CDB7DEB70E94520080E00E946800FCCF9D
:04012000F894FFCF81
:00000001FF
