:100000000C945F000C9489000C9489000C94890076
:100010000C9489000C9489000C9489000C9489003C
:100020000C9489000C9489000C9489000C9489002C
:100030000C9489000C9489000C9489000C9489001C
:100040000C9489000C9489000C9489000C9489000C
:100050000C949B080C9489000C94C5080C9489009E
:100060000C9489000C9489000C9489000C948900EC
:100070000C9489000C9489000C9489000C948900DC
:100080000C9489000C9489000C948900FD000001F7
:100090000301E900060109010C010F011201E7004B
:1000A000FA001501590956095309310950094D093A
:1000B0004A09470944092F0941095C095F091124CC
:1000C0001FBECFEFD0E4DEBFCDBF11E0A0E0B1E0B6
:1000D000E0E3F3E100E00BBF02C007900D92AE3207
:1000E000B107D9F722E0AEE2B1E001C01D92AB3812
:1000F000B207E1F710E0CFE5D0E004C02197FE01A0
:100100000E948D09CE35D107C9F70E94EF080C94E3
:1001100096090C9400008AE892E00E94190160E0C0
:1001200087E892E00E945C016FEF87E892E00E940E
:100130007D0160E084E892E00E945C016FEF84E85A
:1001400092E00E947D016FEF81E892E00E947D01C4
:100150008AE792E00E9454028FE291E00E944C03F1
:100160008FE291E00E946C03789484B7877F84BF0C
:10017000109260000FB6F894A89580916000886195
:1001800080936000109260000FBE0895CF9398E0B6
:1001900088E10FB6F894A895809360000FBE909305
:1001A0006000A8958FE291E00E94E904C82F682FB3
:1001B00084E892E00E949E018C2F90E0FC01319730
:1001C000EC30F10530F4EA5BFF4F0C948D090E948E
:1001D000FA078FE291E00E946C030FB6F894A8959D
:1001E00080916000886180936000109260000FBE73
:1001F000CF9108950E941008ECCF0E944107E9CFEB
:100200000E945A07E6CF0E948107E3CF0E9496071B
:10021000E0CF0E94AC07DDCF0E94C207DACF0E9478
:10022000D307D7CF0E94E407D4CF0E942608D1CFAE
:10023000089584B1806B84B926988AB18C618AB99B
:1002400080E58CBD81E08DBD8BB1837E8BB95A9AE0
:100250005B9A5C9A08958BB1837E8BB98BB160FDFC
:1002600010C090E0892B8BB98BB161FD10C090E07C
:10027000892B8BB98BB162FD10C090E0892B8BB9B3
:10028000089594E0892B8BB98BB161FFF0CF98E092
:10029000892B8BB98BB162FFF0CF90E1892B8BB9A1
:1002A00008956EBD0DB407FEFDCF8EB50895FC0117
:1002B00071836083428308951F93CF93DF93EC0192
:1002C000162F6A81888199810E942B0188819981EA
:1002D00060E40E9451018881998160E00E9451018F
:1002E00088819981612F0E9451018881998167E0FD
:1002F000DF91CF911F910C942B011F93CF93DF932C
:10030000EC01162F6A81888199810E942B018881D6
:10031000998160E40E9451018881998161E00E9485
:10032000510188819981612F0E94510188819981B1
:1003300067E0DF91CF911F910C942B011F93CF9316
:10034000DF93EC01162F6A81888199810E942B012D
:100350008881998160E40E9451018881998162E1DC
:100360000E94510188819981612F0E9451018881E9
:10037000998167E0DF91CF911F910C942B011F931E
:10038000CF93DF93EC01162F6A81888199810E94B7
:100390002B018881998160E40E94510188819981B3
:1003A00063E10E94510188819981612F0E9451016E
:1003B0008881998167E0DF91CF911F910C942B0187
:1003C0001F93CF93DF93EC016A81888199810E940A
:1003D0002B018881998161E40E9451018881998172
:1003E00062E10E9451018881998160E00E9451017F
:1003F000182F8881998167E00E942B01812FDF915E
:10040000CF911F9108951F93CF93DF93EC016A81E1
:10041000888199810E942B018881998161E40E94E1
:1004200051018881998163E10E94510188819981FC
:1004300060E00E945101182F8881998167E00E9435
:100440002B01812FDF91CF911F910895FC017183C2
:100450006083428308950F931F93CF93DF93EC0142
:100460008B016A81888199810E942B018881998101
:10047000B8010024660F771F001C660F771F001C51
:10048000672F702D0E94510188819981602F660F1E
:10049000660F0E9451018881998167E0DF91CF91B9
:1004A0001F910F910C942B0110927C0087E8809390
:1004B0007A00089580917C00807E682B60937C0098
:1004C00080917A00806480937A0083EA91E00197BA
:1004D000F1F700C0000080917A0086FDFCCF80918A
:1004E00078009091790008950F931F93CF93DF9335
:1004F00061E087E892E00E949E01C1E0D0E001E067
:1005000010E02FEF84E39CE0215080409040E1F721
:1005100000C00000B8010C2E01C0660F0A94EAF773
:1005200087E892E00E949E012196C930D10549F7E3
:10053000DF91CF911F910F9108950F931F93CF9348
:10054000DF9361E084E892E00E949E01C1E0D0E088
:1005500001E010E02FEF84E39CE0215080409040C8
:10056000E1F700C00000B8010C2E01C0660F0A942C
:10057000EAF784E892E00E949E012196C930D105F5
:1005800049F7DF91CF911F910F910895CF93DF939A
:10059000C0E0D0E0BE018EE792E00E942B0287E827
:1005A00093E10197F1F700C000002196C11594E096
:1005B000D90781F72FE78AE196E0215080409040EB
:1005C000E1F700C0000060E070E08EE792E0DF91AC
:1005D000CF910C942B02CF93DF93C0E0D0E0BE010B
:1005E0008BE792E00E942B0287E893E10197F1F7F5
:1005F00000C000002196C11594E0D90781F72FE7CC
:100600008AE196E0215080409040E1F700C0000070
:1006100060E070E08BE792E0DF91CF910C942B02C9
:100620000FB6F894A895809160008861809360006F
:10063000109260000FBE60E08AE792E00E945A02CA
:10064000BC018EE792E00E942B0261E08AE792E013
:100650000E945A02BC018BE792E00E942B0287E8BD
:1006600092E00E940302682F87E892E00E949E01B8
:1006700081E892E00E940302682F84E892E00E94E1
:100680009E01D9CF0E9474020E949D020E94C60260
:100690000E94EB020E94100322E02093C00028ED8C
:1006A0002093C10026E02093C2001092C50024E1EF
:1006B0002093C400865B9E4FFC01108208958091B8
:1006C000C6008FE792E00197F1F700C0000080912B
:1006D000C00087FDF4CF089589539F4FFC0110821D
:1006E00008959C01FC01E65BFE4F90819111FDCFC6
:1006F000F901E85BFE4F10820895DC01A953BF4F5A
:100700002C9131E0320F3C933091C600FC01E20F96
:10071000F11DE95BFF4F30832C91FC01E95BFF4F3A
:10072000E081F0E0E050FF4F8081281720F01C921C
:1007300081E080932E0108950F931F93CF93DF9351
:10074000EC018C01085B1E4FF801608187E892E0A4
:100750000E949E01F801908131968081981740F0A7
:10076000C65BDE4F1882DF91CF911F910F910895E4
:100770008091C00085FFFCCFF801808191E0980F47
:100780009083C80FD11DC853DF4F88818093C60066
:10079000DF91CF911F910F910895CF92DF92EF9249
:1007A000FF920F931F93CF93DF93EC01C85BDE4F53
:1007B0002881211109C0DF91CF911F910F91FF90E6
:1007C000EF90DF90CF9008958C018881780197EBAE
:1007D000E91A9EEFF90AF701808318826801F6EBA7
:1007E000CF1AFEEFDF0A81E0F6018083688187E897
:1007F00092E00E949E019881F7018081981788F409
:100800009091C00095FFFCCF888191E0980F98836C
:10081000E801C80FD11DC853DF4F88818093C600FF
:10082000CACFF6011082C7CFFC01E85BFE4F2081E2
:1008300031E0320F3083820F911DFC01E853FF4FEE
:1008400060830895FC01E85BFE4F208131E0320FA8
:100850003083DC01A20FB11DA853BF4F6C932081E0
:1008600031E0320F3083820F911DFC01E853FF4FBE
:10087000708308950F931F93CF93DF938C01DC0156
:10088000A85BBE4F8C9191E0980F9C93F801E80F04
:10089000F11DE853FF4F40839FEF940F442371F005
:1008A000EB0139912C9141E0420F4C93F801E20F9A
:1008B000F11DE853FF4F3083915098F7DF91CF91AE
:1008C0001F910F910895EF92FF920F931F93CF9373
:1008D000DF937C01EC01C85BDE4F888191E0980FCB
:1008E0009883F701E80FF11DE853FF4F40835FEF56
:1008F000540F442309F46BC0FB0120E041E9BF0120
:100900003191888191E0980F98838701080F111D1C
:10091000C80188539F4FDC013C93DB018C91282751
:10092000822F842720FD282F30E035952795842FAE
:10093000822720FD282F30E035952795842F8227A8
:1009400020FD282F30E035952795842F822720FD24
:10095000282F30E035952795842F822720FD282FDA
:1009600030E035952795942F922720FD292F30E0F0
:1009700035952795942F922720FD292F30E0359526
:100980002795842F822720FD282F2695515008F087
:10099000B6CF888191E0980F9883F701E80FF11D99
:1009A000E853FF4F2083F701E953FF4F808191E027
:1009B000980F9083D701A80FB11DA95BBF4F8C91F1
:1009C000DF91CF911F910F91FF90EF90089520E05C
:1009D000E0CFFC01E953FF4F208131E0320F30833B
:1009E000820F911DFC01E95BFF4F80810895FC019E
:1009F000E953FF4F208131E0320F3083DC01A20F39
:100A0000B11DA95BBF4F2C91308141E0430F408362
:100A1000830F911DFC01E95BFF4F3081822F90E035
:100A2000932B0895CF93DF93DC01EC01CB5BDF4F79
:100A3000888199818230910509F469C0A0F40097FA
:100A400009F440C0019749F48C91FD01E80FF11DB4
:100A5000618382E090E0998388838C918F5F8C938F
:100A6000DF91CF9108958330910509F4D6C00497A2
:100A7000A1F78091C6008FE792E00197F1F700C0DF
:100A800000008091C00087FDF4CFFD01EC5BFF4FBB
:100A90008081882309F436C19EEFFD01E85BFE4F9B
:100AA000808121E0280F2083FD01E80FF11DE8532C
:100AB000FF4F9083198218828C918F5F8C93DF9106
:100AC000CF910895613408F41FC18091C6008FE76B
:100AD00092E00197F1F700C000008091C00087FD0F
:100AE000F4CFFD01E85BFE4F808191E0980F908389
:100AF000FD01E80FF11DE853FF4F8EEF808319824F
:100B000018828C918F5F8C93DF91CF9108958C9197
:100B1000FD01E80FF11D6183FD01EC5BFF4F80815A
:100B200068276083808180FF04C0908181E98927E4
:100B30008083808190E0959587958083808180FF78
:100B400004C0908181E989278083808190E0959518
:100B500087958083808180FF04C0908181E9892707
:100B60008083808190E0959587958083808180FF48
:100B700004C0908181E989278083808190E09595E8
:100B800087958083808180FF04C0908181E98927D7
:100B90008083808190E0959587958083808180FF18
:100BA00004C0908181E989278083808190E09595B8
:100BB00087958083808180FF04C0908181E98927A7
:100BC0008083808190E0959587958083808180FFE8
:100BD00004C0908181E989278083808190E0959588
:100BE000879580839C9111968C911197981709F4A1
:100BF00098C09C9111968C911197981708F42DCF5D
:100C00008091C6008FE792E00197F1F700C00000E5
:100C10008091C00087FDF4CF64CF8C91FD01E80F77
:100C2000F11D6183FD01EC5BFF4F808168276083CC
:100C3000808180FF04C0908181E989278083808141
:100C400090E0959587958083808180FF04C0908196
:100C500081E989278083808190E0959587958083BD
:100C6000808180FF04C0908181E989278083808111
:100C700090E0959587958083808180FF04C0908166
:100C800081E989278083808190E09595879580838D
:100C9000808180FF04C0908181E9892780838081E1
:100CA00090E0959587958083808180FF04C0908136
:100CB00081E989278083808190E09595879580835D
:100CC000808180FF04C0908181E9892780838081B1
:100CD00090E0959587958083808180FF04C0908106
:100CE00081E989278083808190E09595879580832D
:100CF00084E090E0998388838C918F5F8C93DF915F
:100D0000CF9108959FEFC9CE11966C931197FD0175
:100D1000EC5BFF4F10821C9281E090E09983888306
:100D20009CCE83E090E09983888397CECF92DF9228
:100D3000FF920F931F93CF93DF93FC01E953FF4F73
:100D40009C01285B3E4F6901D1E9640F711DAEEF34
:100D5000FA2E208131E0320F3083AC01420F511D59
:100D60009A01295B3F4FD9011C91103809F475C0D5
:100D7000113408F010E0C0E020E0308141E0430F82
:100D80004083AC01430F511DDA01A95BBF4F0C91A9
:100D9000202720FD2D2730E035952795422F20FF75
:100DA00002C04D2F4227242F30E035952795422F42
:100DB00020FF02C04D2F422750E055954795242F24
:100DC00040FF02C02D2F242730E035952795422F74
:100DD00020FF02C04D2F422750E055954795242F04
:100DE00040FF02C02D2F242730E035952795422F54
:100DF00020FF02C04D2F422750E055954795242FE4
:100E000040FF02C02D2F24272695C117A0F1CF5FE8
:100E10001C1708F0B2CF3091C600AFE7B2E01197CF
:100E2000F1F700C000003091C00037FDF4CF211170
:100E300014C0F601208131E0320F3083820F911D02
:100E4000FC01E853FF4F8FEF8083DF91CF911F911B
:100E50000F91FF90DF90CF900895D6012C9131E053
:100E6000320F3C93AC01420F511D9A0128533F4F62
:100E7000D901FC926ECFAB014C0F511DDA010C93DE
:100E8000C6CFCF938FE291E00E9471038FE291E091
:100E90000E94E904C82F6FEF8FE291E00E941404D2
:100EA0006C2F8FE291E00E9414048FE291E0CF91C9
:100EB0000C94CD038FE291E00E94710363E08FE216
:100EC00091E00E9414044CE062E271E08FE291E054
:100ED0000E943A0449E069E171E08FE291E00E94EA
:100EE0003A044CE06DE071E08FE291E00E943A0438
:100EF0006FEF8FE291E00E9414048FE291E00C9476
:100F0000CD038FE291E00E9471038FE291E00E9495
:100F1000F704BC01660F771F680F791F8FE291E01D
:100F20000E9422048FE291E00C94CD038FE291E0C5
:100F30000E9471038FE291E00E94E904682F87E824
:100F400092E00E949E016FEF8FE291E00E941404F4
:100F50008FE291E00C94CD038FE291E00E94710347
:100F60008FE291E00E94E904682F84E892E00E94F9
:100F70009E016FEF8FE291E00E9414048FE291E0F6
:100F80000C94CD038FE291E00E94710387E892E018
:100F90000E940302682F8FE291E00E9414048FE206
:100FA00091E00C94CD038FE291E00E94710384E8FC
:100FB00092E00E940302682F8FE291E00E941404E5
:100FC0008FE291E00C94CD038FE291E00E947103D7
:100FD0008FE291E00E94F704BC018EE792E00E944C
:100FE0002B026FEF8FE291E00E9414048FE291E0F8
:100FF0000C94CD038FE291E00E9471038FE291E0A7
:101000000E94F704BC018BE792E00E942B026FEF75
:101010008FE291E00E9414048FE291E00C94CD03E2
:101020008FE291E00E9471038FE291E00E94E90457
:10103000682F8AE792E00E945A02BC018FE291E099
:101040000E9422048FE291E00C94CD038F929F9234
:10105000AF92BF92CF92DF92EF92FF920F931F93C6
:10106000CF93DF938FE291E00E94E904882E8FE214
:1010700091E00E94E904982E8FE291E00E94F7042B
:10108000EC018FE291E00E94F7045C018FE291E0B5
:101090000E94F704A89E6001A99ED00CB89ED00CB7
:1010A00011246FEF84E892E00E949E01CC15DD05CB
:1010B0004CF5BE018EE792E00E942B02A895682DA8
:1010C0008AE792E00E945A027C01692D8AE792E049
:1010D0000E945A028C018FE291E00E947103B701D5
:1010E0008FE291E00E942204B8018FE291E00E9419
:1010F00022048FE291E00E94CD03CA0DDB1DCC15C6
:10110000DD05BCF28FE291E00E9471036FEF8FE288
:1011100091E00E9414048FE291E0DF91CF911F9142
:101120000F91FF90EF90DF90CF90BF90AF909F9086
:101130008F900C94CD031F920F920FB60F92112433
:101140000BB60F922F933F934F935F936F937F93C1
:101150008F939F93AF93BF93EF93FF938FE291E0B1
:101160000E947D03FF91EF91BF91AF919F918F916D
:101170007F916F915F914F913F912F910F900BBE97
:101180000F900FBE0F901F9018951F920F920FB6E1
:101190000F9211240BB60F922F933F934F935F93AF
:1011A0006F937F938F939F93AF93BF93EF93FF932F
:1011B0008FE291E00E949C03FF91EF91BF91AF916C
:1011C0009F918F917F916F915F914F913F912F915F
:1011D0000F900BBE0F900FBE0F901F9018950E949E
:1011E0008B006FEF87E892E00E949E012FE78AE173
:1011F00096E0215080409040E1F700C0000060E0A0
:1012000087E892E00E949E0118E1D8E004C026E041
:101210002A95F1F700C080912E018823C1F3109226
:101220002E010FB6F894A895109360000FBED093CE
:101230006000A8958FE291E00E94E904C82F682F12
:1012400084E892E00E949E018C2F90E0FC0131978F
:10125000EC30F10530F4EE5AFF4F0C948D090E94EA
:10126000FA078FE291E00E946C030FB6F894A895FC
:1012700080916000886180936000109260000FBED2
:10128000C6CF0E941008EDCF0E94E407EACF0E946B
:10129000D307E7CF0E94C207E4CF0E94AC07E1CF9B
:1012A0000E949607DECF0E948107DBCF0E945A077B
:1012B000D8CF0E944107D5CF0E942608D2CF8AE816
:1012C00092E00E94180142E06AE872E087E892E04A
:1012D0000E94570143E06AE872E084E892E00E94CD
:1012E000570145E06AE872E081E892E00E94570108
:1012F00040E06AE872E08EE792E00E94260241E058
:101300006AE872E08BE792E00E94260210922F01B9
:1013100010927501109274010895EE0FFF1F0024C2
:10132000001C0BBE0790F691E02D0994F894FFCFB6
:1013300001020103000202010103030209626F615D
:101340007264696E666F2E680030383A33393A3508
:0E1350003700417072202033203230313900D6
:00000001FF
