:100000000C9453000C947D000C947D000C947D00A6
:100010000C947D000C947D000C947D000C947D006C
:100020000C947D000C947D000C947D000C947D005C
:100030000C947D000C947D000C947D000C947D004C
:100040000C947D000C947D000C947D000C947D003C
:100050000C947F000C947D000C947D000C947D002A
:100060000C947D000C947D000C947D000C947D001C
:100070000C947D000C947D000C947D000C947D000C
:100080000C947D000C947D000C947D0023012601CE
:1000900029011A012C012F013201350138013B01E0
:1000A00020013E010D0711241FBECFEFD0E4DEBFBB
:1000B000CDBF11E0A0E0B1E0ECE8FEE000E00BBF56
:1000C00002C007900D92A232B107D9F721E0A2E257
:1000D000B1E001C01D92AA37B207E1F710E0C3E515
:1000E000D0E004C02197FE010E943B07C235D10732
:1000F000C9F70E94F1060C9444070C9400001F926B
:100100000F920FB60F9211240BB60F922F933F93BD
:100110004F935F936F937F938F939F93AF93BF930F
:10012000EF93FF938091C00083FF05C06FEF86E7D8
:1001300091E00E94C701F8946091C60082E291E0CC
:100140000E943B047894FF91EF91BF91AF919F91F2
:100150008F917F916F915F914F913F912F910F9070
:100160000BBE0F900FBE0F901F90189589E791E07E
:100170000E94420160E086E791E00E9485016FEFF6
:1001800086E791E00E94A60160E083E791E00E948B
:1001900085016FEF83E791E00E94A6016FEF80E792
:1001A00091E00E94A60189E691E00E947D0282E230
:1001B00091E00E947503789484B7877F84BF109282
:1001C00060000FB6F894A8958091600088618093D4
:1001D0006000109260000FBE0895CF930FB6F894A0
:1001E000A895809160008861809360001092600003
:1001F0000FBE6FEF83E791E00E94C70182E291E0BA
:100200000E942304C82F60E083E791E00E94C701A9
:1002100098E088E10FB6F894A895809360000FBE2F
:1002200090936000A8958C2F90E0FC013197EC3002
:10023000F10510F0CF910895EA5BFF4F0C943B0756
:10024000CF910C947D06CF910C94F605CF910C9430
:100250000706CF910C942606CF910C943306CF91CC
:100260000C944106CF910C944F06CF910C945806F4
:10027000CF910C946106CF910C946F06CF910C94A2
:100280008B06089584B1806B84B926988AB18C61FD
:100290008AB980E58CBD81E08DBD8BB1837E8BB941
:1002A0005A9A5B9A5C9A08958BB1837E8BB98BB115
:1002B00060FD10C090E0892B8BB98BB161FD10C03F
:1002C00090E0892B8BB98BB162FD10C090E0892B37
:1002D0008BB9089594E0892B8BB98BB161FFF0CF76
:1002E00098E0892B8BB98BB162FFF0CF90E1892B1D
:1002F0008BB908956EBD0DB407FEFDCF8EB5089580
:10030000FC0171836083428308951F93CF93DF9331
:10031000EC01162F6A81888199810E94540160E462
:10032000888199810E947A0160E0888199810E9488
:100330007A01612F888199810E947A0167E0888122
:100340009981DF91CF911F910C9454011F93CF930A
:10035000DF93EC01162F6A81888199810E945401F4
:1003600060E4888199810E947A0161E088819981A5
:100370000E947A01612F888199810E947A0167E049
:1003800088819981DF91CF911F910C9454011F9323
:10039000CF93DF93EC01162F6A81888199810E94A7
:1003A000540160E4888199810E947A0162E1888128
:1003B00099810E947A01612F888199810E947A0136
:1003C00067E088819981DF91CF911F910C9454014E
:1003D0001F93CF93DF93EC01162F6A818881998157
:1003E0000E94540160E4888199810E947A0163E14E
:1003F000888199810E947A01612F888199810E9468
:100400007A0167E088819981DF91CF911F910C94E7
:1004100054011F93CF93DF93EC016A818881998106
:100420000E94540161E4888199810E947A0162E10D
:10043000888199810E947A0160E0888199810E9477
:100440007A01182F67E0888199810E945401812FD9
:10045000DF91CF911F9108951F93CF93DF93EC010C
:100460006A81888199810E94540161E4888199811F
:100470000E947A0163E1888199810E947A0160E09B
:10048000888199810E947A01182F67E0888199817B
:100490000E945401812FDF91CF911F910895FC019B
:1004A00071836083428308950F931F93CF93DF93EB
:1004B000EC018B016A81888199810E945401B80105
:1004C0000024660F771F001C660F771F001C672F24
:1004D000702D888199810E947A01602F660F660FC6
:1004E000888199810E947A0167E088819981DF91F2
:1004F000CF911F910F910C94540110927C0087E8CA
:1005000080937A00089580917C00807E682B6093B0
:100510007C0080917A00806480937A0083EA91E085
:100520000197F1F700C0000080917A0086FDFCCFB2
:10053000809178009091790008950F931F93CF9345
:10054000DF9361E086E791E00E94C701C1E0D0E05F
:1005500001E010E02FEF84E39CE0215080409040C8
:10056000E1F700C00000B8010C2E01C0660F0A942C
:10057000EAF786E791E00E94C7012196C930D105CC
:1005800049F7DF91CF911F910F9108950F931F931A
:10059000CF93DF9361E083E791E00E94C701C1E060
:1005A000D0E001E010E02FEF84E39CE02150804098
:1005B0009040E1F700C00000B8010C2E01C0660FAA
:1005C0000A94EAF783E791E00E94C7012196C930B7
:1005D000D10549F7DF91CF911F910F910895CF93E6
:1005E000DF93C0E0D0E0BE018DE691E00E945402AE
:1005F00087E893E10197F1F700C000002196C1154B
:1006000094E0D90781F72FE78AE196E021508040F6
:100610009040E1F700C0000060E070E08DE691E0FE
:10062000DF91CF910C945402CF93DF93C0E0D0E0E0
:10063000BE018AE691E00E94540287E893E10197A7
:10064000F1F700C000002196C11594E0D90781F7A9
:100650002FE78AE196E0215080409040E1F700C00A
:10066000000060E070E08AE691E0DF91CF910C94A9
:1006700054020FB6F894A895809160008861809329
:100680006000109260000FBE60E089E691E00E9479
:100690008302BC018DE691E00E94540261E089E68C
:1006A00091E00E948302BC018AE691E00E9454021C
:1006B00086E791E00E942C02682F86E791E00E9475
:1006C000C70180E791E00E942C02682F83E791E048
:1006D0000E94C701D9CF0E949D020E94C6020E94BB
:1006E000EF020E9414030E94390382E08093C0004D
:1006F00088E98093C10086E08093C2001092C50013
:1007000084E18093C40008958091C6008FE792E051
:100710000197F1F700C000008091C00087FDF4CF81
:1007200008958091C00085FFFCCF6093C6000895B6
:100730008091C00085FFFCCF6093C6008091C0000F
:1007400085FFFCCF7093C60008958091C00085FF9F
:10075000FCCF4093C6009FEF940F442351F0FB0160
:1007600021918091C00085FFFCCF2093C60091505D
:10077000B8F708958091C00085FFFCCF4093C60074
:100780005FEF540F442309F45CC0FB0120E041E912
:10079000DF0190818091C00085FFFCCF9093C6005F
:1007A00031969C91822F892780FD842790E0959532
:1007B0008795282F80FF02C0242F2827822F90E0C2
:1007C00095958795282F80FF02C0242F282730E099
:1007D00035952795822F20FF02C0842F822790E035
:1007E00095958795282F80FF02C0242F282730E079
:1007F00035952795822F20FF02C0842F822790E015
:1008000095958795282F80FF02C0242F282730E058
:1008100035952795822F20FF02C0842F8227282F0D
:100820002695515008F0B4CF8091C00085FFFCCFD1
:100830002093C6008091C00087FFFCCF8091C60046
:10084000089520E0F1CF8091C00087FFFCCF809118
:10085000C60008958091C00087FFFCCF2091C6009C
:1008600030E09091C00097FFFCCF8091C600A901B5
:10087000582BCA010895CF93DF93FC01DC01AB5BD9
:10088000BF4F8D919C9111978230910509F4ACC0B6
:1008900098F4009709F48AC0019771F58081EF01FF
:1008A000C80FD11D698322E030E02D933C938F5F08
:1008B0008083DF91CF9108958330910519F10497DA
:1008C000D9F48091C6008FE792E00197F1F700C05C
:1008D00000008091C00087FDF4CFEF01CC5BDF4FBB
:1008E00088818111E7C09FEF8091C00085FFFCCF18
:1008F0009093C6001D921C9280818F5F8083DF9150
:10090000CF9108958081EF01C80FD11D6983EF0158
:10091000CC5BDF4F9881692760FF02C091E96927AE
:1009200070E075956795462F60FF02C041E9462744
:1009300050E055954795242F40FF02C021E9242718
:1009400030E035952795422F20FF02C041E942272C
:1009500050E055954795242F40FF02C021E92427F8
:1009600030E035952795422F20FF02C041E942270C
:1009700050E055954795242F40FF02C021E92427D8
:1009800030E035952795922F20FF02C091E99227FC
:10099000292F30E035952795288324E030E02D93EA
:1009A0003C938F5F8083DF91CF910895613408F489
:1009B00083C08091C6008FE792E00197F1F700C0F5
:1009C00000008091C00087FDF4CF8091C00085FFBA
:1009D000FCCF8EEF8093C6001D921C9280818F5FAA
:1009E0008083DF91CF9108958081EF01C80FD11DE1
:1009F0006983EF01CC5BDF4F9881692760FF02C0FC
:100A000091E9692770E075956795462F60FF02C0F0
:100A100041E9462750E055954795242F40FF02C0F5
:100A200021E9242730E035952795422F20FF02C089
:100A300041E9422750E055954795242F40FF02C0D9
:100A400021E9242730E035952795422F20FF02C069
:100A500041E9422750E055954795242F40FF02C0B9
:100A600021E9242730E035952795922F20FF02C0F9
:100A700091E99227292F30E0359527952883918198
:100A8000891721F1891708F438CF8091C6008FE7C4
:100A900092E00197F1F700C000008091C00087FD4F
:100AA000F4CF8091C00085FD94CF8091C00085FF78
:100AB000F8CF8FCF9EEF18CF6183EF01CC5BDF4F74
:100AC000188281E090E08D939C9318CF23E030E072
:100AD0002D933C938F5F12CFCF93DF93CB0171E9BE
:100AE0009C01240F311DA901AEEF8091C00087FF4A
:100AF000FCCFE091C600E03809F46AC0E13408F0A8
:100B0000E0E060E090E08091C00087FFFCCFF091D2
:100B1000C6008F2F892780FD872790E095958795C0
:100B2000282F80FF02C0272F2827822F90E095953D
:100B30008795282F80FF02C0272F282730E0359582
:100B40002795822F20FF02C0872F822790E095955E
:100B50008795282F80FF02C0272F282730E0359562
:100B60002795822F20FF02C0872F822790E095953E
:100B70008795282F80FF02C0272F282730E0359542
:100B80002795822F20FF02C0872F8227982F9695C6
:100B90006E1738F16F5FE61708F0B5CF8091C60089
:100BA000EFE7F2E03197F1F700C000008091C0005C
:100BB00087FDF4CF992399F02EEF8091C00085FF37
:100BC000FCCF2093C600911190CFDF91CF91089573
:100BD0008091C00085FFFCCFA093C60086CF2FEF89
:100BE000ECCFEA01C60FD11DF883D4CFCF9382E2B8
:100BF00091E00E942304C82F6FEF82E291E00E94EF
:100C000091036C2F82E291E0CF910C94910363E009
:100C100082E291E00E9491034CE065E171E082E2A2
:100C200091E00E94A50349E06CE071E082E291E06E
:100C30000E94A5034CE060E071E082E291E00E9436
:100C4000A5036FEF82E291E00C94910382E291E0C0
:100C50000E942A04BC01660F771F680F791F82E289
:100C600091E00C94980382E291E00E942304682FA3
:100C700086E791E00E94C7016FEF82E291E00C9459
:100C8000910382E291E00E942304682F83E791E0C0
:100C90000E94C7016FEF82E291E00C94910386E716
:100CA00091E00E942C02682F82E291E00C94910363
:100CB00083E791E00E942C02682F82E291E00C947D
:100CC000910382E291E00E942A04BC018DE691E04A
:100CD0000E9454026FEF82E291E00C94910382E251
:100CE00091E00E942A04BC018AE691E00E9454022D
:100CF0006FEF82E291E00C94910382E291E00E9416
:100D00002304682F89E691E00E948302BC0182E2FD
:100D100091E00C9498038F929F92AF92BF92CF92E2
:100D2000DF92EF92FF920F931F93CF93DF9382E2B4
:100D300091E00E942304882E82E291E00E94230425
:100D4000982E82E291E00E942A04EC0182E291E076
:100D50000E942A045C0182E291E00E942A048C0134
:100D60006FEF82E291E00E949103A09E6001A19E3C
:100D7000D00CB09ED00C1124CC15DD050CF5BE01B5
:100D80008DE691E00E945402A895682D89E691E0D5
:100D90000E9483027C01692D89E691E00E94830212
:100DA0008C01B70182E291E00E949803B80182E2CF
:100DB00091E00E949803CA0DDB1DCC15DD05FCF205
:100DC0006FEF82E291E0DF91CF911F910F91FF9041
:100DD000EF90DF90CF90BF90AF909F908F900C944A
:100DE00091030E94B6006FEF86E791E00E94C70171
:100DF0002FE78AE196E0215080409040E1F700C063
:100E0000000060E086E791E00E94C70187E893E177
:100E10000197F1F700C00000F9CF89E791E00E9447
:100E2000410142E069E771E086E791E00E948001BC
:100E300043E069E771E083E791E00E94800145E0CB
:100E400069E771E080E791E00E94800140E069E796
:100E500071E08DE691E00E944F0241E069E771E0A8
:100E60008AE691E00E944F021092220110926801DE
:100E7000109267010895EE0FFF1F0024001C0BBEA7
:0C0E80000790F691E02D0994F894FFCF44
:100E8C00626F617264696E666F2E680031303A343D
:100E9C00333A3130004170722020322032303139F7
:020EAC00000044
:00000001FF
