:100000000C9461000C948B000C948B000C948B006E
:100010000C948B000C948B000C948B000C948B0034
:100020000C948B000C948B000C948B000C948B0024
:100030000C948B000C948B000C948B000C948B0014
:100040000C948B000C948B000C948B000C94480E39
:100050000C94F40D0C948B000C941E0E0C948B00DD
:100060000C948B000C948B000C948B000C948B00E4
:100070000C948B000C948B000C948B000C948B00D4
:100080000C948B000C948B000C948B00F500F80002
:10009000FB00E100FE000101040107010A010D015E
:1000A000DF00F2001001D60ED30ED00EAB0ECD0E37
:1000B000CA0EC70EC40EC10EBE0EA90EBB0ED90EBF
:1000C000DC0E11241FBECFEFD0E4DEBFCDBF11E0A8
:1000D000A0E0B1E0EAE2FEE100E00BBF02C0079061
:1000E0000D92A033B107D9F722E0A0E3B1E001C03F
:1000F0001D92A839B207E1F710E0C1E6D0E004C0D4
:100100002197FE010E940A0FC036D107C9F70E944D
:10011000720E0C94130F0C94000084B7877F84BF79
:10012000109260000FB6F894A895809160008861E5
:1001300080936000109260000FBE8DE892E00E94F4
:100140001801789460E08AE892E00E94DD016FEF88
:100150008AE892E00E94F90160E087E892E00E945C
:10016000DD016FEF87E892E00E94F9016FEF84E80C
:1001700092E00E94F9018DE792E00E94C10281E3C2
:1001800091E00E94B90381E391E00C94D903CF93ED
:10019000A89581E391E00E940209C82F682F87E8A3
:1001A00092E00E941502209A8C2F90E0FC0131977A
:1001B000ED30F10530F4EA5BFF4F0C940A0F0E941A
:1001C000530D81E391E00E94D9030FB6F894A895EE
:1001D00080916000886180936000109260000FBE83
:1001E000CF9108950E94690DECCF0E94890CE9CF50
:1001F0000E94A20CE6CF0E94C90CE3CF0E94DE0C45
:10020000E0CF0E94F40CDDCF0E940A0DDACF0E94ED
:100210001B0DD7CF0E942C0DD4CF0E943D0DD1CF06
:100220000E947F0DCECFFC011086118612860895A4
:1002300084B1806B84B926988AB18C618AB980EDCB
:100240008CBD81E88DBD8BB1837E8BB95A9A5B9A48
:100250005C9A0895FC0182858823B1F08085DF01D6
:10026000A80FB11D9C91808521E0280F20872EB515
:10027000DF01A80FB11D2C9320858185281710F070
:10028000108612869EBD08958BB1837E8BB95A9AD3
:100290005B9A5C9A0895FC0180858823A9F1828588
:1002A0008111FDCF81E082878BB1837E8BB99BB1B9
:1002B00060FD2BC080E0892B8BB99BB161FD2BC009
:1002C00080E0892B8BB99BB162FD2BC080E0892B2C
:1002D0008BB98085818710868285882359F1808536
:1002E000DF01A80FB11D9C91808521E0280F208798
:1002F0002EB5DF01A80FB11D2C932085818528170D
:1003000010F0108612869EBD089584E0892B8BB96B
:100310009BB161FFD5CF88E0892B8BB99BB162FF80
:10032000D5CF80E1892B8BB9808581871086828526
:100330008111D5CF8BB1837E8BB95A9A5B9A5C9A27
:100340000895FC0192859111FDCF808591E0980F71
:100350009087E80FF11D60830895FC01928591114B
:10036000FDCF08958BB1837E8BB98BB160FD10C03A
:1003700090E0892B8BB98BB161FD10C090E0892B87
:100380008BB98BB162FD10C090E0892B8BB90895B9
:1003900094E0892B8BB98BB161FFF0CF98E0892B6A
:1003A0008BB98BB162FFF0CF90E1892B8BB90895A7
:1003B000FC0171836083428308951F93CF93DF9381
:1003C000EC01162F8881998160E40E94A101888147
:1003D000998160E00E94A10188819981612F0E942A
:1003E000A1016A8188819981DF91CF911F910C943D
:1003F0004B011F93CF93DF93EC01162F88819981D6
:1004000060E40E94A1018881998161E00E94A101BC
:1004100088819981612F0E94A1016A8188819981D7
:10042000DF91CF911F910C944B011F93CF93DF93DA
:10043000EC01162F8881998160E40E94A1018881D6
:10044000998162E10E94A10188819981612F0E94B6
:10045000A1016A8188819981DF91CF911F910C94CC
:100460004B011F93CF93DF93EC01162F8881998165
:1004700060E40E94A1018881998163E10E94A10149
:1004800088819981612F0E94A1016A818881998167
:10049000DF91CF911F910C944B01CF93DF93EC012F
:1004A0008881998161E40E94A1018881998162E13A
:1004B0000E94A1018881998160E00E94A101888148
:1004C000998160E00E94A1016A81888199810E94DE
:1004D0004B01888199810E94AD01E881F981838176
:1004E000DF91CF910895CF93DF93EC0188819981BB
:1004F00061E40E94A1018881998163E10E94A101C8
:100500008881998160E00E94A1018881998160E0E1
:100510000E94A1016A81888199810E944B01888192
:1005200099810E94AD01E881F9818381DF91CF91AA
:100530000895FC0171836083428308950F931F9394
:10054000CF93DF93EC018B01888199810024660FA2
:10055000771F001C660F771F001C672F702D0E94ED
:10056000A10188819981602F660F660F0E94A10109
:100570006A8188819981DF91CF911F910F910C94AD
:100580004B0110927C0087E880937A000895809157
:100590007C00807E682B60937C0080917A00806470
:1005A00080937A0083EA91E00197F1F700C00000A0
:1005B00080917A0086FDFCCF80917800909179003F
:1005C00008950F931F93CF93DF9361E08AE892E041
:1005D0000E941502C1E0D0E001E010E02FEF84E3BB
:1005E0009CE0215080409040E1F700C00000B8013D
:1005F0000C2E01C0660F0A94EAF78AE892E00E9486
:1006000015022196C930D10549F7DF91CF911F918D
:100610000F9108950F931F93CF93DF9361E087E8C5
:1006200092E00E941502C1E0D0E001E010E02FEF5F
:1006300084E39CE0215080409040E1F700C000003E
:10064000B8010C2E01C0660F0A94EAF787E892E021
:100650000E9415022196C930D10549F7DF91CF914B
:100660001F910F910895CF93DF93C0E0D0E0BE01BA
:1006700081E892E00E949E0287E893E10197F1F7FA
:1006800000C000002196C11594E0D90781F72FE73B
:100690008AE196E0215080409040E1F700C00000E0
:1006A00060E070E081E892E0DF91CF910C949E02CF
:1006B000CF93DF93C0E0D0E0BE018EE792E00E94CE
:1006C0009E0287E893E10197F1F700C000002196B0
:1006D000C11594E0D90781F72FE78AE196E0215010
:1006E00080409040E1F700C0000060E070E08EE7DD
:1006F00092E0DF91CF910C949E020FB6F894A895EA
:1007000080916000886180936000109260000FBE4D
:1007100060E08DE792E00E94C702BC0181E892E0B0
:100720000E949E0261E08DE792E00E94C702BC0138
:100730008EE792E00E949E028AE892E00E94730295
:10074000682F8AE892E00E94150284E892E00E94F5
:100750007302682F87E892E00E941502D9CF0E94A9
:10076000E1020E940A030E9433030E9458030E9480
:100770007D0322E02093C00028ED2093C10026E0F5
:100780002093C2001092C50024E12093C400855B31
:100790009E4FFC01108208958091C6008FE792E081
:1007A0000197F1F700C000008091C00087FDF4CFF1
:1007B000089589539F4FFC01108208959C01FC010C
:1007C000E55BFE4F90819111FDCFF901E85BFE4F93
:1007D0001082329610820895DC01A953BF4F2C91EC
:1007E00031E0320F3C933091C600FC01E20FF11D65
:1007F000E95BFF4F30832C91213081F02C91FC017B
:10080000E95BFF4FE081F0E0E050FF4F8081281767
:1008100020F01C9281E080933001089538E028E1B7
:100820000FB6F894A895209360000FBE3093600037
:10083000A895E4CF0F931F93CF93DF93EC018C0126
:10084000085B1E4FF80160818AE892E00E94150261
:10085000F801908131968081981740F0C55BDE4F9A
:100860001882DF91CF911F910F9108958091C00060
:1008700085FFFCCFF801808191E0980F9083C80F2D
:10088000D11DC853DF4F88818093C600DF91CF917F
:100890001F910F910895CF92DF92EF92FF920F93E5
:1008A0001F93CF93DF93EC01C85BDE4F28812111AA
:1008B00009C0DF91CF911F910F91FF90EF90DF90D2
:1008C000CF9008958C018881780197EBE91A9EEF0B
:1008D000F90AF701808318826801F5EBCF1AFEEF61
:1008E000DF0A81E0F601808368818AE892E00E9455
:1008F00015029881F7018081981788F49091C000C3
:1009000095FFFCCF888191E0980F9883E801C80F8C
:10091000D11DC853DF4F88818093C600CACFF6012E
:100920001082C7CFFC01E85BFE4F208131E0320F1F
:100930003083FC01E20FF11DE853FF4F6083FC019F
:10094000E65BFE4F808168276083808180FF04C062
:10095000908181E989278083808190E095958795B2
:100960008083808180FF04C0908181E98927808312
:10097000808190E0959587958083808180FF04C079
:10098000908181E989278083808190E09595879582
:100990008083808180FF04C0908181E989278083E2
:1009A000808190E0959587958083808180FF04C049
:1009B000908181E989278083808190E09595879552
:1009C0008083808180FF04C0908181E989278083B2
:1009D000808190E0959587958083808180FF04C019
:1009E000908181E989278083808190E09595879522
:1009F0008083808180FF04C0908181E98927808382
:100A0000808190E09595879580830895DC01A85BAF
:100A1000BE4F2C9131E0320F3C93FC01E20FF11DEF
:100A2000E853FF4F6083FC01E65BFE4F20816227A5
:100A30006083208120FF04C0308121E923272083A7
:100A4000208130E0359527952083208120FF04C048
:100A5000308121E923272083208130E035952795B7
:100A60002083208120FF04C0308121E923272083B7
:100A7000208130E0359527952083208120FF04C018
:100A8000308121E923272083208130E03595279587
:100A90002083208120FF04C0308121E92327208387
:100AA000208130E0359527952083208120FF04C0E8
:100AB000308121E923272083208130E03595279557
:100AC0002083208120FF04C0308121E92327208357
:100AD000208130E0359527952083208120FF04C0B8
:100AE000308121E923272083208130E03595279527
:100AF00020832C9131E0320F3C93820F911DDC0159
:100B0000A853BF4F7C93808178277083808180FFBA
:100B100004C0908181E989278083808190E0959548
:100B200087958083808180FF04C0908181E9892737
:100B30008083808190E0959587958083808180FF78
:100B400004C0908181E989278083808190E0959518
:100B500087958083808180FF04C0908181E9892707
:100B60008083808190E0959587958083808180FF48
:100B700004C0908181E989278083808190E09595E8
:100B800087958083808180FF04C0908181E98927D7
:100B90008083808190E0959587958083808180FF18
:100BA00004C0908181E989278083808190E09595B8
:100BB00087958083808180FF04C0908181E98927A7
:100BC0008083808190E095958795808308950F9329
:100BD0001F93CF93DF93DC01A85BBE4F2C9131E0D4
:100BE000320F3C93FC01E20FF11DE853FF4F4083AD
:100BF000FC01E65BFE4F208124272083208120FF1B
:100C000004C0308121E923272083208130E03595FD
:100C100027952083208120FF04C0308121E92327EC
:100C20002083208130E0359527952083208120FF87
:100C300004C0308121E923272083208130E03595CD
:100C400027952083208120FF04C0308121E92327BC
:100C50002083208130E0359527952083208120FF57
:100C600004C0308121E923272083208130E035959D
:100C700027952083208120FF04C0308121E923278C
:100C80002083208130E0359527952083208120FF27
:100C900004C0308121E923272083208130E035956D
:100CA00027952083208120FF04C0308121E923275C
:100CB0002083208130E03595279520835FEF540F06
:100CC000442309F46EC08B0141E9E80139918E019A
:100CD0002C9161E0620F6C93BC01620F711D68532F
:100CE0007F4FEB013883208123272083208120FF41
:100CF00003C0208124272083208130E0359527956B
:100D00002083208120FF03C020812427208320818D
:100D100030E0359527952083208120FF03C0208176
:100D200024272083208130E035952795208320815A
:100D300020FF03C0208124272083208130E03595C7
:100D400027952083208120FF03C020812427208332
:100D5000208130E0359527952083208120FF03C036
:100D6000208124272083208130E03595279520831A
:100D7000208120FF03C0208124272083208130E0B0
:100D8000359527952083208120FF03C020812427CB
:100D90002083208130E0359527952083515008F03D
:100DA00094CFDF91CF911F910F910895FC01E65BE5
:100DB000FE4F2081DC01A85BBE4F3C9141E0430F18
:100DC0004C93830F911DDC01A853BF4F2C9380815E
:100DD00082278083808180FF04C0908181E98927F8
:100DE0008083808190E0959587958083808180FFC6
:100DF00004C0908181E989278083808190E0959566
:100E000087958083808180FF04C0908181E9892754
:100E10008083808190E0959587958083808180FF95
:100E200004C0908181E989278083808190E0959535
:100E300087958083808180FF04C0908181E9892724
:100E40008083808190E0959587958083808180FF65
:100E500004C0908181E989278083808190E0959505
:100E600087958083808180FF04C0908181E98927F4
:100E70008083808190E0959587958083808180FF35
:100E800004C0908181E989278083808190E09595D5
:100E9000879580830895CF92DF92EF92FF920F9310
:100EA0001F93CF93DF936C018C01085B1E4FD80119
:100EB0008C9191E0980F9C93F601E80FF11DE85397
:100EC000FF4F4083F601E65BFE4F808184278083DD
:100ED000808180FF04C0908181E98927808380819F
:100EE00090E0959587958083808180FF04C09081F4
:100EF00081E989278083808190E09595879580831B
:100F0000808180FF04C0908181E98927808380816E
:100F100090E0959587958083808180FF04C09081C3
:100F200081E989278083808190E0959587958083EA
:100F3000808180FF04C0908181E98927808380813E
:100F400090E0959587958083808180FF04C0908193
:100F500081E989278083808190E0959587958083BA
:100F6000808180FF04C0908181E98927808380810E
:100F700090E0959587958083808180FF04C0908163
:100F800081E989278083808190E09595879580838A
:100F90005FEF540F442309F433C1DB0120E041E942
:100FA000BD019C91E801888131E0380F38837601DA
:100FB000E80EF11CD8ECED0EF11CE701988380815E
:100FC00089278083808180FF03C08081842780837C
:100FD000808190E0959587958083808180FF03C014
:100FE000808184278083808190E095958795808398
:100FF000808180FF03C0808184278083808190E08E
:10100000959587958083808180FF03C080818427A8
:101010008083808190E0959587958083808180FF93
:1010200003C0808184278083808190E09595879597
:101030008083808180FF03C08081842780838081BA
:1010400090E0959587958083808180FF03C08081A3
:1010500084278083808190E0959587958083808127
:1010600080FF03C0808184278083808190E09595F4
:10107000879580831196EB019881292720FD2427ED
:1010800030E035952795822F20FF02C0842F8227DC
:1010900090E095958795282F80FF02C0242F282760
:1010A00030E035952795822F20FF02C0842F8227BC
:1010B00090E095958795282F80FF02C0242F282740
:1010C00030E035952795822F20FF02C0842F82279C
:1010D00090E095958795682F80FF02C0642F682760
:1010E00070E075956795262F60FF02C0242F262794
:1010F0002695515008F054CFD8018C9191E0980F6B
:101100009C93D601A80FB11DA853BF4F2C9380818B
:1011100028272083808180FF04C0908181E989276E
:101120008083808190E0959587958083808180FF82
:1011300004C0908181E989278083808190E0959522
:1011400087958083808180FF04C0908181E9892711
:101150008083808190E0959587958083808180FF52
:1011600004C0908181E989278083808190E09595F2
:1011700087958083808180FF04C0908181E98927E1
:101180008083808190E0959587958083808180FF22
:1011900004C0908181E989278083808190E09595C2
:1011A00087958083808180FF04C0908181E98927B1
:1011B0008083808190E0959587958083808180FFF2
:1011C00004C0908181E989278083808190E0959592
:1011D00087958083F601E953FF4F808191E0980F56
:1011E0009083E601C80FD11DC95BDF4F8881DF9175
:1011F000CF911F910F91FF90EF90DF90CF900895C6
:1012000020E07ACFFC01E953FF4F208131E0320F1B
:101210003083820F911DFC01E95BFF4F80810895AF
:10122000FC01E953FF4F208131E0320F3083DC01B4
:10123000A20FB11DA95BBF4F2C91308141E0430F3C
:101240004083830F911DFC01E95BFF4F3081822FAA
:1012500090E0932B0895CF93DF93DC01EC01CB5BFF
:10126000DF4F888199818230910509F446C1A0F44D
:10127000009709F41BC1019749F48C91FD01E80F17
:10128000F11D618382E090E0998388838C918F5F68
:101290008C93DF91CF9108958330910509F491C02B
:1012A0000497A1F78091C6008FE792E00197F1F7CC
:1012B00000C000008091C00087FDF4CFFD01EC5B11
:1012C000FF4F8081882309F49DC19EEFFD01E85BFB
:1012D000FE4F808121E0280F2083FD01E80FF11DE2
:1012E000E853FF4F9083FD01E65BFE4F8081892725
:1012F0008083808180FF04C0908181E98927808379
:10130000808190E0959587958083808180FF04C0DF
:10131000908181E989278083808190E095958795E8
:101320008083808180FF04C0908181E98927808348
:10133000808190E0959587958083808180FF04C0AF
:10134000908181E989278083808190E095958795B8
:101350008083808180FF04C0908181E98927808318
:10136000808190E0959587958083808180FF04C07F
:10137000908181E989278083808190E09595879588
:101380008083808180FF04C0908181E989278083E8
:10139000808190E0959587958083808180FF04C04F
:1013A000908181E989278083808190E09595879558
:1013B0008083198218828C918F5F8C93DF91CF91FB
:1013C00008958C91FD01E80FF11D6183FD01EC5B37
:1013D000FF4F808168276083808180FF04C09081F7
:1013E00081E989278083808190E095958795808326
:1013F000808180FF04C0908181E98927808380817A
:1014000090E0959587958083808180FF04C09081CE
:1014100081E989278083808190E0959587958083F5
:10142000808180FF04C0908181E989278083808149
:1014300090E0959587958083808180FF04C090819E
:1014400081E989278083808190E0959587958083C5
:10145000808180FF04C0908181E989278083808119
:1014600090E0959587958083808180FF04C090816E
:1014700081E989278083808190E095958795808395
:10148000808180FF04C0908181E9892780838081E9
:1014900090E095958795808384E090E09983888398
:1014A0008C918F5F8C93DF91CF910895613408F414
:1014B000ABC08091C6008FE792E00197F1F700C0C2
:1014C00000008091C00087FDF4CFFD01E85BFE4F76
:1014D000808191E0980F9083FD01E80FF11DE853A2
:1014E000FF4F8EEF8083FD01E65BFE4F90818927E1
:1014F0008083808180FF04CFFFCE8C91FD01E80FB7
:10150000F11D6183FD01EC5BFF4F808168276083E3
:10151000808180FF04C0908181E989278083808158
:1015200090E0959587958083808180FF04C09081AD
:1015300081E989278083808190E0959587958083D4
:10154000808180FF04C0908181E989278083808128
:1015500090E0959587958083808180FF04C090817D
:1015600081E989278083808190E0959587958083A4
:10157000808180FF04C0908181E9892780838081F8
:1015800090E0959587958083808180FF04C090814D
:1015900081E989278083808190E095958795808374
:1015A000808180FF04C0908181E9892780838081C8
:1015B00090E0959587958083808180FF04C090811D
:1015C00081E989278083808190E095958795808344
:1015D0009C9111968C911197981719F19C911196E5
:1015E0008C911197981708F451CE8091C6008FE71F
:1015F00092E00197F1F700C000008091C00087FDE4
:10160000F4CF63CF9FEF62CE11966C931197FD01DB
:10161000EC5BFF4F10821C9281E090E099838883FD
:1016200035CE83E090E09983888330CE8F929F926D
:10163000AF92BF92DF92EF920F931F93CF93DF93FE
:10164000DC01A953BF4F9C01285B3E4F4901FC01BF
:10165000E65BFE4F11E95B01A40EB11C2EEFD22E0A
:101660002C9131E0320F3C93AC01420F511D9A0195
:10167000295B3F4FE9016881603809F4DBC06134C0
:1016800008F060E000E020E03C9141E0430F4C9323
:10169000AC01430F511DEA01C95BDF4FE8802E25E5
:1016A00020FD212730E035952795422F20FF02C0ED
:1016B000412F4227242F30E035952795422F20FFD8
:1016C00002C0412F422750E055954795242F40FFF7
:1016D00002C0212F242730E035952795422F20FF87
:1016E00002C0412F422750E055954795242F40FFD7
:1016F00002C0212F242730E035952795422F20FF67
:1017000002C0412F422750E055954795242F40FFB6
:1017100002C0212F24272695061708F4F4C00F5F76
:10172000601708F0B1CF3091C600CFE7D2E0219723
:10173000F1F700C000003091C00037FDF4CF222344
:1017400009F476C00EEFE401488131E0340F3883AC
:10175000BC01640F711DAB0148535F4FEA01088360
:10176000308130273083308130FF03C03081312712
:101770003083408150E0559547954083308130FF5C
:1017800003C0308131273083408150E05595479523
:101790004083308130FF03C0308131273083408166
:1017A00050E0559547954083308130FF03C030812C
:1017B00031273083408150E05595479540833081F3
:1017C00030FF03C0308131273083408150E0559590
:1017D00047954083308130FF03C03081312730830B
:1017E000408150E0559547954083308130FF03C0DC
:1017F000308131273083408150E0559547954083B3
:10180000308130FF03C0308131273083408150E088
:10181000559547954083211123CFDF91CF911F919B
:101820000F91EF90DF90BF90AF909F908F900895B1
:101830000FEF89CFE401288131E0320F3883AC010A
:10184000420F511D9A0128533F4FE901D882208150
:101850002D252083208120FF03C020812127208384
:10186000208130E0359527952083208120FF03C01B
:10187000208121272083208130E035952795208302
:10188000208120FF03C0208121272083208130E098
:10189000359527952083208120FF03C020812127B3
:1018A0002083208130E0359527952083208120FFFB
:1018B00003C0208121272083208130E035952795A2
:1018C0002083208120FF03C02081212720832081C5
:1018D00030E0359527952083208120FF03C02081AB
:1018E00021272083208130E0359527952083208192
:1018F00020FF03C0208121272083208130E03595FF
:1019000027952083ADCEA501400F511DEA01E88245
:1019100006CFCF9381E391E00E94DE0381E391E063
:101920000E940209C82F6FEF81E391E00E949204A8
:101930006C2F81E391E00E94920481E391E0CF91CA
:101940000C944B0481E391E00E94DE0363E081E3A9
:1019500091E00E9492044CE063E271E081E391E047
:101960000E94E70549E06AE171E081E391E00E94AD
:10197000E7054CE06EE071E081E391E00E94E7054D
:101980006FEF81E391E00E94920481E391E00C9477
:101990004B0481E391E00E94DE0381E391E00E9429
:1019A0001009BC01660F771F680F791F81E391E072
:1019B0000E94060581E391E00C944B0481E391E0E1
:1019C0000E94DE0381E391E00E940209682F8AE809
:1019D00092E00E9415026FEF81E391E00E94920471
:1019E00081E391E00C944B0481E391E00E94DE03DB
:1019F00081E391E00E940209682F87E892E00E944B
:101A000015026FEF81E391E00E94920481E391E07F
:101A10000C944B0481E391E00E94DE038AE892E09B
:101A20000E947302682F81E391E00E94920481E397
:101A300091E00C944B0481E391E00E94DE0387E87F
:101A400092E00E947302682F81E391E00E94920469
:101A500081E391E00C944B0481E391E00E94DE036A
:101A600084E892E00E947302682F81E391E00E9473
:101A7000920481E391E00C944B0481E391E00E9495
:101A8000DE0381E391E00E941009BC0181E892E04D
:101A90000E949E026FEF81E391E00E94920481E335
:101AA00091E00C944B0481E391E00E94DE0381E31A
:101AB00091E00E941009BC018EE792E00E949E0214
:101AC0006FEF81E391E00E94920481E391E00C9436
:101AD0004B0481E391E00E94DE0381E391E00E94E8
:101AE0000209682F8DE792E00E94C702BC0181E3E2
:101AF00091E00E94060581E391E00C944B048F92E3
:101B00009F92AF92BF92CF92DF92EF92FF920F938C
:101B10001F93CF93DF9381E391E00E940209882E07
:101B200081E391E00E940209982E81E391E00E94F6
:101B30001009EC0181E391E00E9410095C0181E34E
:101B400091E00E941009A89E6001A99ED00CB89E49
:101B5000D00C11246FEF87E892E00E941502CC159B
:101B6000DD054CF5BE0181E892E00E949E02A89539
:101B7000682D8DE792E00E94C7027C01692D8DE7F8
:101B800092E00E94C7028C0181E391E00E94DE0393
:101B9000B70181E391E00E940605B80181E391E07D
:101BA0000E94060581E391E00E944B04CA0DDB1DF3
:101BB000CC15DD05BCF281E391E00E94DE036FEFFE
:101BC00081E391E00E94920481E391E0DF91CF9163
:101BD0001F910F91FF90EF90DF90CF90BF90AF904B
:101BE0009F908F900C944B041F920F920FB60F9200
:101BF00011240BB60F922F933F934F935F936F93E4
:101C00007F938F939F93AF93BF93EF93FF9381E362
:101C100091E00E94EC03FF91EF91BF91AF919F91F2
:101C20008F917F916F915F914F913F912F910F9085
:101C30000BBE0F900FBE0F901F9018951F920F9222
:101C40000FB60F9211240BB60F922F933F934F9321
:101C50005F936F937F938F939F93AF93BF93EF9314
:101C6000FF9381E391E00E941A04FF91EF91BF91ED
:101C7000AF919F918F917F916F915F914F913F9124
:101C80002F910F900BBE0F900FBE0F901F901895C5
:101C90001F920F920FB60F9211240BB60F922F9333
:101CA0003F934F935F936F937F938F939F93AF93E4
:101CB000BF93EF93FF938DE892E00E942A01FF917A
:101CC000EF91BF91AF919F918F917F916F915F91B4
:101CD0004F913F912F910F900BBE0F900FBE0F9021
:101CE0001F9018950E948D006FEF8AE892E00E9485
:101CF00015022FE78AE196E0215080409040E1F7FD
:101D000000C0000060E08AE892E00E94150204C072
:101D100026E02A95F1F700C0809130018823C1F3B5
:101D200010923001A89581E391E00E940209C82F2A
:101D3000682F87E892E00E941502209A8C2F90E08D
:101D4000FC013197ED30F10530F4ED5AFF4F0C9462
:101D50000A0F0E94530D81E391E00E94D9030FB650
:101D6000F894A8958091600088618093600010923B
:101D700060000FBECDCF0E94690DEDCF0E943D0DDA
:101D8000EACF0E942C0DE7CF0E941B0DE4CF0E94EA
:101D90000A0DE1CF0E94F40CDECF0E94DE0CDBCFF7
:101DA0000E94C90CD8CF0E94A20CD5CF0E94890CEA
:101DB000D2CF0E947F0DCFCF8DE892E00E94130119
:101DC00042E06DE872E08AE892E00E94D80143E0C8
:101DD0006DE872E087E892E00E94D80145E06DE886
:101DE00072E084E892E00E94D80140E06DE872E081
:101DF00081E892E00E94990241E06DE872E08EE78E
:101E000092E00E9499021092310110927701109293
:101E100076010895EE0FFF1F0024001C0BBE0790F3
:0A1E2000F691E02D0994F894FFCF2D
:101E2A000102010300020201010103030209626FB8
:101E3A00617264696E666F2E680031313A33373ADF
:101E4A00303800417072202033203230313900009E
:00000001FF
