:100000000C945F000C9489000C9489000C94890076
:100010000C9489000C9489000C9489000C9489003C
:100020000C9489000C9489000C9489000C9489002C
:100030000C9489000C9489000C9489000C9489001C
:100040000C9489000C9489000C9489000C9489000C
:100050000C9484080C9489000C94AE080C948900CC
:100060000C9489000C9489000C9489000C948900EC
:100070000C9489000C9489000C9489000C948900DC
:100080000C9489000C9489000C948900FD000001F7
:100090000301E900060109010C010F011201E7004B
:1000A000FA00150142093F093C091A0939093609C4
:1000B000330930092D0918092A094509480911246D
:1000C0001FBECFEFD0E4DEBFCDBF11E0A0E0B1E0B6
:1000D000E2E0F3E100E00BBF02C007900D92AE3208
:1000E000B107D9F722E0AEE2B1E001C01D92AB3218
:1000F000B207E1F710E0CFE5D0E004C02197FE01A0
:100100000E947609CE35D107C9F70E94D8080C9411
:100110007F090C9400008AE292E00E94190160E0DD
:1001200087E292E00E945C016FEF87E292E00E941A
:100130007D0160E084E292E00E945C016FEF84E266
:1001400092E00E947D016FEF81E292E00E947D01CA
:100150008AE192E00E9454028FE291E00E944C03F7
:100160008FE291E00E946C03789484B7877F84BF0C
:10017000109260000FB6F894A89580916000886195
:1001800080936000109260000FBE0895CF9398E0B6
:1001900088E10FB6F894A895809360000FBE909305
:1001A0006000A8958FE291E00E94D504C82F682FC7
:1001B00084E292E00E949E018C2F90E0FC01319736
:1001C000EC30F10530F4EA5BFF4F0C9476090E94A5
:1001D000E3078FE291E00E946C030FB6F894A895B4
:1001E00080916000886180936000109260000FBE73
:1001F000CF9108950E94F907ECCF0E942A07E9CF1A
:100200000E944307E6CF0E946A07E3CF0E947F0760
:10021000E0CF0E949507DDCF0E94AB07DACF0E94A6
:10022000BC07D7CF0E94CD07D4CF0E940F08D1CFF3
:10023000089584B1806B84B926988AB18C618AB99B
:1002400080E58CBD81E08DBD8BB1837E8BB95A9AE0
:100250005B9A5C9A08958BB1837E8BB98BB160FDFC
:1002600010C090E0892B8BB98BB161FD10C090E07C
:10027000892B8BB98BB162FD10C090E0892B8BB9B3
:10028000089594E0892B8BB98BB161FFF0CF98E092
:10029000892B8BB98BB162FFF0CF90E1892B8BB9A1
:1002A00008956EBD0DB407FEFDCF8EB50895FC0117
:1002B00071836083428308951F93CF93DF93EC0192
:1002C000162F6A81888199810E942B0160E48881C0
:1002D00099810E94510160E0888199810E945101B9
:1002E000612F888199810E94510167E088819981FD
:1002F000DF91CF911F910C942B011F93CF93DF932C
:10030000EC01162F6A81888199810E942B0160E49B
:10031000888199810E94510161E0888199810E94C0
:100320005101612F888199810E94510167E0888184
:100330009981DF91CF911F910C942B011F93CF9343
:10034000DF93EC01162F6A81888199810E942B012D
:1003500060E4888199810E94510162E188819981DC
:100360000E945101612F888199810E94510167E0AB
:1003700088819981DF91CF911F910C942B011F935C
:10038000CF93DF93EC01162F6A81888199810E94B7
:100390002B0160E4888199810E94510163E1888189
:1003A00099810E945101612F888199810E94510198
:1003B00067E088819981DF91CF911F910C942B0187
:1003C0001F93CF93DF93EC016A81888199810E940A
:1003D0002B0161E4888199810E94510162E1888149
:1003E00099810E94510160E0888199810E945101A8
:1003F000182F67E0888199810E942B01812FDF915E
:10040000CF911F9108951F93CF93DF93EC016A81E1
:10041000888199810E942B0161E4888199810E94E1
:10042000510163E1888199810E94510160E08881D6
:1004300099810E945101182F67E0888199810E945B
:100440002B01812FDF91CF911F910895FC017183C2
:100450006083428308950F931F93CF93DF93EC0142
:100460008B016A81888199810E942B01B801002447
:10047000660F771F001C660F771F001C672F702DFB
:10048000888199810E945101602F660F660F8881D3
:1004900099810E94510167E088819981DF91CF9114
:1004A0001F910F910C942B0110927C0087E8809390
:1004B0007A00089580917C00807E682B60937C0098
:1004C00080917A00806480937A0083EA91E00197BA
:1004D000F1F700C0000080917A0086FDFCCF80918A
:1004E00078009091790008950F931F93CF93DF9335
:1004F00061E087E292E00E949E01C1E0D0E001E06D
:1005000010E02FEF84E39CE0215080409040E1F721
:1005100000C00000B8010C2E01C0660F0A94EAF773
:1005200087E292E00E949E012196C930D10549F7E9
:10053000DF91CF911F910F9108950F931F93CF9348
:10054000DF9361E084E292E00E949E01C1E0D0E08E
:1005500001E010E02FEF84E39CE0215080409040C8
:10056000E1F700C00000B8010C2E01C0660F0A942C
:10057000EAF784E292E00E949E012196C930D105FB
:1005800049F7DF91CF911F910F910895CF93DF939A
:10059000C0E0D0E0BE018EE192E00E942B0287E82D
:1005A00093E10197F1F700C000002196C11594E096
:1005B000D90781F72FE78AE196E0215080409040EB
:1005C000E1F700C0000060E070E08EE192E0DF91B2
:1005D000CF910C942B02CF93DF93C0E0D0E0BE010B
:1005E0008BE192E00E942B0287E893E10197F1F7FB
:1005F00000C000002196C11594E0D90781F72FE7CC
:100600008AE196E0215080409040E1F700C0000070
:1006100060E070E08BE192E0DF91CF910C942B02CF
:100620000FB6F894A895809160008861809360006F
:10063000109260000FBE60E08AE192E00E945A02D0
:10064000BC018EE192E00E942B0261E08AE192E01F
:100650000E945A02BC018BE192E00E942B0287E2C9
:1006600092E00E940302682F87E292E00E949E01BE
:1006700081E292E00E940302682F84E292E00E94ED
:100680009E01D9CF0E9474020E949D020E94C60260
:100690000E94EB020E94100322E02093C00028ED8C
:1006A0002093C10026E02093C2001092C50024E1EF
:1006B0002093C40086519F4FFC01108208958091C1
:1006C000C6008FE792E00197F1F700C0000080912B
:1006D000C00087FDF4CF089589519F4FFC0110821F
:1006E00008959C01FC01E651FF4F90819111FDCFCF
:1006F000F901E851FF4F10820895DC01A951BF4F65
:100700002C9131E0320F3C933091C600FC01E20F96
:10071000F11DE953FF4F30832C91FC01E953FF4F4A
:10072000E081F0E0E050FF4F8081281720F01C921C
:1007300081E080932E0108950F931F93CF93DF9351
:10074000EC018C0108511F4FF801608187E292E0B3
:100750000E949E01F801908131968081981740F0A7
:10076000C651DF4F1882DF91CF911F910F910895ED
:100770008091C00085FFFCCFF801808191E0980F47
:100780009083C80FD11D89818093C600DF91CF91DE
:100790001F910F910895CF92DF92EF92FF920F93E6
:1007A0001F93CF93DF93EC01C851DF4F28812111B4
:1007B00009C0DF91CF911F910F91FF90EF90DF90D3
:1007C000CF9008958C018881780199EEE90EF11C93
:1007D000F701808318826801FAEECF0ED11C81E008
:1007E000F6018083688187E292E00E949E019881F1
:1007F000F7018081981778F49091C00095FFFCCFA5
:10080000888191E0980F9883E801C80FD11D8981F4
:100810008093C600CECFF6011082CBCFFC01E85109
:10082000FF4F208131E0320F3083FC01E20FF11DD8
:1008300061830895FC01E851FF4F208131E0320FC0
:100840003083DC01A20FB11D11966C93208131E041
:10085000320F3083FC01E20FF11D718308950F9375
:100860001F93CF93DF938C01FC01E851FF4F8081F0
:1008700091E0980F9083D801A80FB11D11964C9369
:100880009FEF940F442361F0DB013D91208141E013
:10089000420F4083E801C20FD11D39839150A8F760
:1008A000DF91CF911F910F910895EF92FF920F93D7
:1008B0001F93CF93DF937C01EC01C851DF4F8881F8
:1008C00091E0980F9883F701E80FF11D41835FEFE6
:1008D000540F442309F467C0FB0120E041E9BF0144
:1008E0003191888191E0980F98838701080F111D3D
:1008F000D80111963C93DB018C912827822F842705
:1009000020FD282F30E035952795842F822720FD64
:10091000282F30E035952795842F822720FD282F1A
:1009200030E035952795842F822720FD282F30E051
:1009300035952795842F822720FD282F30E0359587
:100940002795942F922720FD292F30E03595279564
:10095000942F922720FD292F30E035952795842F5D
:10096000822720FD282F2695515008F0B8CF888186
:1009700091E0980F9883F701E80FF11D2183F701AB
:10098000E951FF4F808191E0980F9083D701A80F24
:10099000B11DA953BF4F8C91DF91CF911F910F9142
:1009A000FF90EF90089520E0E2CFFC01E951FF4F66
:1009B000208131E0320F3083820F911DFC01E95319
:1009C000FF4F80810895FC01E951FF4F208131E004
:1009D000320F3083DC01A20FB11DA953BF4F2C9100
:1009E000308141E0430F4083830F911DFC01E953A7
:1009F000FF4F3081822F90E0932B0895CF93DF93A8
:100A0000DC01EC01CB53DF4F888199818230910565
:100A100009F467C0B0F4009709F440C0019759F495
:100A20008C91FD01E80FF11DEF57FF4F608382E0CD
:100A300090E0998388838C918F5F8C93DF91CF9125
:100A400008958330910509F4D3C00497A1F78091EC
:100A5000C6008FE792E00197F1F700C00000809197
:100A6000C00087FDF4CFFD01EC53FF4F8081882348
:100A700009F435C19EEFFD01E851FF4F808121E06F
:100A8000280F2083FD01E80FF11D91831982188240
:100A90008C918F5F8C93DF91CF910895613408F42E
:100AA00020C18091C6008FE792E00197F1F700C066
:100AB00000008091C00087FDF4CFFD01E851FF4F99
:100AC000808191E0980F9083FD01E80FF11D8EEF7A
:100AD0008183198218828C918F5F8C93DF91CF91E3
:100AE00008958C91FD01E80FF11DEF57FF4F6083D2
:100AF000FD01EC53FF4F808168276083808180FF78
:100B000004C0908181E989278083808190E0959558
:100B100087958083808180FF04C0908181E9892747
:100B20008083808190E0959587958083808180FF88
:100B300004C0908181E989278083808190E0959528
:100B400087958083808180FF04C0908181E9892717
:100B50008083808190E0959587958083808180FF58
:100B600004C0908181E989278083808190E09595F8
:100B700087958083808180FF04C0908181E98927E7
:100B80008083808190E0959587958083808180FF28
:100B900004C0908181E989278083808190E09595C8
:100BA00087958083808180FF04C0908181E98927B7
:100BB0008083808190E09595879580839C91FD014D
:100BC000EF57FF4F8081981709F498C09C9180815E
:100BD000981708F430CF8091C6008FE792E0019714
:100BE000F1F700C000008091C00087FDF4CF65CF11
:100BF0008C91FD01E80FF11DEF57FF4F6083FD0160
:100C0000EC53FF4F808168276083808180FF04C0A0
:100C1000908181E989278083808190E095958795EF
:100C20008083808180FF04C0908181E9892780834F
:100C3000808190E0959587958083808180FF04C0B6
:100C4000908181E989278083808190E095958795BF
:100C50008083808180FF04C0908181E9892780831F
:100C6000808190E0959587958083808180FF04C086
:100C7000908181E989278083808190E0959587958F
:100C80008083808180FF04C0908181E989278083EF
:100C9000808190E0959587958083808180FF04C056
:100CA000908181E989278083808190E0959587955F
:100CB0008083808180FF04C0908181E989278083BF
:100CC000808190E095958795808384E090E099837A
:100CD00088838C918F5F8C93DF91CF9108959FEFE4
:100CE000CACEFD01EF57FF4F6083ED5BFF4F1082CF
:100CF0001C9281E090E0998388839DCE83E090E010
:100D00009983888398CECF92DF92FF920F931F939F
:100D1000CF93DF93FC01E951FF4F9C0128513F4FD6
:100D20006901D1E9640F711DAEEFFA2E208131E027
:100D3000320F3083AC01420F511D9A0129533F4FAE
:100D4000D9011C91103809F473C0113408F010E077
:100D5000C0E020E0308141E0430F4083AC01430F0D
:100D6000511DDA01A953BF4F0C91202720FD2D27DB
:100D700030E035952795422F20FF02C04D2F4227A6
:100D8000242F30E035952795422F20FF02C04D2FAC
:100D9000422750E055954795242F40FF02C02D2F44
:100DA000242730E035952795422F20FF02C04D2F94
:100DB000422750E055954795242F40FF02C02D2F24
:100DC000242730E035952795422F20FF02C04D2F74
:100DD000422750E055954795242F40FF02C02D2F04
:100DE00024272695C11780F1CF5F1C1708F0B2CFDA
:100DF0003091C600AFE7B2E01197F1F700C00000F4
:100E00003091C00037FDF4CF211112C0F6012081CE
:100E100031E0320F3083FC01E20FF11D2FEF21830F
:100E2000DF91CF911F910F91FF90DF90CF900895A8
:100E3000D6012C9131E0320F3C93AC01420F511D91
:100E4000DA011196FC9272CFAB014C0F511DDA0101
:100E50000C93CACFCF938FE291E00E9471038FE28F
:100E600091E00E94D504C82F6FEF8FE291E00E94BD
:100E70000E046C2F8FE291E00E940E048FE291E04D
:100E8000CF910C94CB038FE291E00E94710363E059
:100E90008FE291E00E940E044CE062E271E08FE28A
:100EA00091E00E942F0449E069E171E08FE291E056
:100EB0000E942F044CE06DE071E08FE291E00E940F
:100EC0002F046FEF8FE291E00E940E048FE291E019
:100ED0000C94CB038FE291E00E9471038FE291E0CA
:100EE0000E94E304BC01660F771F680F791F8FE231
:100EF00091E00E941A048FE291E00C94CB038FE200
:100F000091E00E9471038FE291E00E94D504682F66
:100F100087E292E00E949E016FEF8FE291E00E94D3
:100F20000E048FE291E00C94CB038FE291E00E94DB
:100F300071038FE291E00E94D504682F84E292E071
:100F40000E949E016FEF8FE291E00E940E048FE2FB
:100F500091E00C94CB038FE291E00E94710387E251
:100F600092E00E940302682F8FE291E00E940E043B
:100F70008FE291E00C94CB038FE291E00E94710329
:100F800084E292E00E940302682F8FE291E00E94C7
:100F90000E048FE291E00C94CB038FE291E00E946B
:100FA00071038FE291E00E94E304BC018EE192E0C4
:100FB0000E942B026FEF8FE291E00E940E048FE2FD
:100FC00091E00C94CB038FE291E00E9471038FE2D9
:100FD00091E00E94E304BC018BE192E00E942B02AD
:100FE0006FEF8FE291E00E940E048FE291E00C948B
:100FF000CB038FE291E00E9471038FE291E00E94A7
:10100000D504682F8AE192E00E945A02BC018FE267
:1010100091E00E941A048FE291E00C94CB038F922E
:101020009F92AF92BF92CF92DF92EF92FF920F9377
:101030001F93CF93DF938FE291E00E94D504882E17
:101040008FE291E00E94D504982E8FE291E00E94F9
:10105000E304EC018FE291E00E94E3045C018FE283
:1010600091E00E94E304A89E6001A99ED00CB89E66
:10107000D00C11246FEF84E292E00E949E01CC1507
:10108000DD054CF5BE018EE192E00E942B02A89591
:10109000682D8AE192E00E945A027C01692D8AE162
:1010A00092E00E945A028C018FE291E00E9471034B
:1010B000B7018FE291E00E941A04B8018FE291E03B
:1010C0000E941A048FE291E00E94CB03CA0DDB1D3F
:1010D000CC15DD05BCF28FE291E00E9471036FEF49
:1010E0008FE291E00E940E048FE291E0DF91CF91B8
:1010F0001F910F91FF90EF90DF90CF90BF90AF9036
:101100009F908F900C94CB031F920F920FB60F926B
:1011100011240BB60F922F933F934F935F936F93CE
:101120007F938F939F93AF93BF93EF93FF938FE240
:1011300091E00E947D03FF91EF91BF91AF919F914C
:101140008F917F916F915F914F913F912F910F9070
:101150000BBE0F900FBE0F901F9018951F920F920D
:101160000FB60F9211240BB60F922F933F934F930C
:101170005F936F937F938F939F93AF93BF93EF93FF
:10118000FF938FE291E00E949C03FF91EF91BF914A
:10119000AF919F918F917F916F915F914F913F910F
:1011A0002F910F900BBE0F900FBE0F901F901895B0
:1011B0000E948B006FEF87E292E00E949E012FE772
:1011C0008AE196E0215080409040E1F700C00000A5
:1011D00060E087E292E00E949E0118E1D8E004C03E
:1011E00026E02A95F1F700C080912E018823C1F3F3
:1011F00010922E010FB6F894A895109360000FBEC0
:10120000D0936000A8958FE291E00E94D504C82F8A
:10121000682F84E292E00E949E018C2F90E0FC01F6
:101220003197EC30F10530F4EE5AFF4F0C9476090B
:101230000E94E3078FE291E00E946C030FB6F894DE
:10124000A895809160008861809360001092600092
:101250000FBEC6CF0E94F907EDCF0E94CD07EACF9F
:101260000E94BC07E7CF0E94AB07E4CF0E9495071E
:10127000E1CF0E947F07DECF0E946A07DBCF0E948A
:101280004307D8CF0E942A07D5CF0E940F08D2CF9C
:101290008AE292E00E94180142E06AE272E087E28C
:1012A00092E00E94570143E06AE272E084E292E039
:1012B0000E94570145E06AE272E081E292E00E94FA
:1012C000570140E06AE272E08EE192E00E9426025D
:1012D00041E06AE272E08BE192E00E942602109205
:1012E0002F011092F5011092F4010895EE0FFF1FE7
:1012F0000024001C0BBE0790F691E02D0994F89491
:02130000FFCF1D
:1013020001020103000202010103030209626F618B
:101312007264696E666F2E680031353A35393A3338
:0E132200390041707220203220323031390003
:00000001FF
